{
  "_format": "hh-sol-artifact-1",
  "contractName": "StoneAgeDecentralNFT",
  "sourceName": "contracts/StoneAgeDecentral/NFT.sol",
  "abi": [
    {
      "inputs": [],
      "stateMutability": "nonpayable",
      "type": "constructor"
    },
    {
      "inputs": [
        {
          "internalType": "address",
          "name": "sender",
          "type": "address"
        },
        {
          "internalType": "uint256",
          "name": "tokenId",
          "type": "uint256"
        },
        {
          "internalType": "address",
          "name": "owner",
          "type": "address"
        }
      ],
      "name": "ERC721IncorrectOwner",
      "type": "error"
    },
    {
      "inputs": [
        {
          "internalType": "address",
          "name": "operator",
          "type": "address"
        },
        {
          "internalType": "uint256",
          "name": "tokenId",
          "type": "uint256"
        }
      ],
      "name": "ERC721InsufficientApproval",
      "type": "error"
    },
    {
      "inputs": [
        {
          "internalType": "address",
          "name": "approver",
          "type": "address"
        }
      ],
      "name": "ERC721InvalidApprover",
      "type": "error"
    },
    {
      "inputs": [
        {
          "internalType": "address",
          "name": "operator",
          "type": "address"
        }
      ],
      "name": "ERC721InvalidOperator",
      "type": "error"
    },
    {
      "inputs": [
        {
          "internalType": "address",
          "name": "owner",
          "type": "address"
        }
      ],
      "name": "ERC721InvalidOwner",
      "type": "error"
    },
    {
      "inputs": [
        {
          "internalType": "address",
          "name": "receiver",
          "type": "address"
        }
      ],
      "name": "ERC721InvalidReceiver",
      "type": "error"
    },
    {
      "inputs": [
        {
          "internalType": "address",
          "name": "sender",
          "type": "address"
        }
      ],
      "name": "ERC721InvalidSender",
      "type": "error"
    },
    {
      "inputs": [
        {
          "internalType": "uint256",
          "name": "tokenId",
          "type": "uint256"
        }
      ],
      "name": "ERC721NonexistentToken",
      "type": "error"
    },
    {
      "anonymous": false,
      "inputs": [
        {
          "indexed": true,
          "internalType": "address",
          "name": "owner",
          "type": "address"
        },
        {
          "indexed": true,
          "internalType": "address",
          "name": "approved",
          "type": "address"
        },
        {
          "indexed": true,
          "internalType": "uint256",
          "name": "tokenId",
          "type": "uint256"
        }
      ],
      "name": "Approval",
      "type": "event"
    },
    {
      "anonymous": false,
      "inputs": [
        {
          "indexed": true,
          "internalType": "address",
          "name": "owner",
          "type": "address"
        },
        {
          "indexed": true,
          "internalType": "address",
          "name": "operator",
          "type": "address"
        },
        {
          "indexed": false,
          "internalType": "bool",
          "name": "approved",
          "type": "bool"
        }
      ],
      "name": "ApprovalForAll",
      "type": "event"
    },
    {
      "anonymous": false,
      "inputs": [
        {
          "indexed": false,
          "internalType": "uint256",
          "name": "_fromTokenId",
          "type": "uint256"
        },
        {
          "indexed": false,
          "internalType": "uint256",
          "name": "_toTokenId",
          "type": "uint256"
        }
      ],
      "name": "BatchMetadataUpdate",
      "type": "event"
    },
    {
      "anonymous": false,
      "inputs": [
        {
          "indexed": false,
          "internalType": "uint256",
          "name": "_tokenId",
          "type": "uint256"
        }
      ],
      "name": "MetadataUpdate",
      "type": "event"
    },
    {
      "anonymous": false,
      "inputs": [
        {
          "indexed": true,
          "internalType": "address",
          "name": "from",
          "type": "address"
        },
        {
          "indexed": true,
          "internalType": "address",
          "name": "to",
          "type": "address"
        },
        {
          "indexed": true,
          "internalType": "uint256",
          "name": "tokenId",
          "type": "uint256"
        }
      ],
      "name": "Transfer",
      "type": "event"
    },
    {
      "inputs": [
        {
          "internalType": "address",
          "name": "to",
          "type": "address"
        },
        {
          "internalType": "uint256",
          "name": "tokenId",
          "type": "uint256"
        }
      ],
      "name": "approve",
      "outputs": [],
      "stateMutability": "nonpayable",
      "type": "function"
    },
    {
      "inputs": [
        {
          "internalType": "address",
          "name": "owner",
          "type": "address"
        }
      ],
      "name": "balanceOf",
      "outputs": [
        {
          "internalType": "uint256",
          "name": "",
          "type": "uint256"
        }
      ],
      "stateMutability": "view",
      "type": "function"
    },
    {
      "inputs": [
        {
          "internalType": "string",
          "name": "_tokenURI",
          "type": "string"
        },
        {
          "internalType": "uint256",
          "name": "_price",
          "type": "uint256"
        }
      ],
      "name": "createToken",
      "outputs": [
        {
          "internalType": "uint256",
          "name": "",
          "type": "uint256"
        }
      ],
      "stateMutability": "nonpayable",
      "type": "function"
    },
    {
      "inputs": [
        {
          "internalType": "uint256",
          "name": "tokenId",
          "type": "uint256"
        }
      ],
      "name": "executeSale",
      "outputs": [],
      "stateMutability": "payable",
      "type": "function"
    },
    {
      "inputs": [],
      "name": "getAllListedNFTs",
      "outputs": [
        {
          "components": [
            {
              "internalType": "uint256",
              "name": "tokenId",
              "type": "uint256"
            },
            {
              "internalType": "address payable",
              "name": "owner",
              "type": "address"
            },
            {
              "internalType": "address payable",
              "name": "seller",
              "type": "address"
            },
            {
              "internalType": "uint256",
              "name": "price",
              "type": "uint256"
            }
          ],
          "internalType": "struct StoneAgeDecentralNFT.NFTListing[]",
          "name": "",
          "type": "tuple[]"
        }
      ],
      "stateMutability": "view",
      "type": "function"
    },
    {
      "inputs": [
        {
          "internalType": "uint256",
          "name": "tokenId",
          "type": "uint256"
        }
      ],
      "name": "getApproved",
      "outputs": [
        {
          "internalType": "address",
          "name": "",
          "type": "address"
        }
      ],
      "stateMutability": "view",
      "type": "function"
    },
    {
      "inputs": [],
      "name": "getCurrentTokenId",
      "outputs": [
        {
          "internalType": "uint256",
          "name": "",
          "type": "uint256"
        }
      ],
      "stateMutability": "view",
      "type": "function"
    },
    {
      "inputs": [],
      "name": "getListingFeePercent",
      "outputs": [
        {
          "internalType": "uint256",
          "name": "",
          "type": "uint256"
        }
      ],
      "stateMutability": "view",
      "type": "function"
    },
    {
      "inputs": [],
      "name": "getMyNFTs",
      "outputs": [
        {
          "components": [
            {
              "internalType": "uint256",
              "name": "tokenId",
              "type": "uint256"
            },
            {
              "internalType": "address payable",
              "name": "owner",
              "type": "address"
            },
            {
              "internalType": "address payable",
              "name": "seller",
              "type": "address"
            },
            {
              "internalType": "uint256",
              "name": "price",
              "type": "uint256"
            }
          ],
          "internalType": "struct StoneAgeDecentralNFT.NFTListing[]",
          "name": "",
          "type": "tuple[]"
        }
      ],
      "stateMutability": "view",
      "type": "function"
    },
    {
      "inputs": [
        {
          "internalType": "uint256",
          "name": "_tokenId",
          "type": "uint256"
        }
      ],
      "name": "getNFTListing",
      "outputs": [
        {
          "components": [
            {
              "internalType": "uint256",
              "name": "tokenId",
              "type": "uint256"
            },
            {
              "internalType": "address payable",
              "name": "owner",
              "type": "address"
            },
            {
              "internalType": "address payable",
              "name": "seller",
              "type": "address"
            },
            {
              "internalType": "uint256",
              "name": "price",
              "type": "uint256"
            }
          ],
          "internalType": "struct StoneAgeDecentralNFT.NFTListing",
          "name": "",
          "type": "tuple"
        }
      ],
      "stateMutability": "view",
      "type": "function"
    },
    {
      "inputs": [],
      "name": "getTotalItemsSold",
      "outputs": [
        {
          "internalType": "uint256",
          "name": "",
          "type": "uint256"
        }
      ],
      "stateMutability": "view",
      "type": "function"
    },
    {
      "inputs": [
        {
          "internalType": "address",
          "name": "owner",
          "type": "address"
        },
        {
          "internalType": "address",
          "name": "operator",
          "type": "address"
        }
      ],
      "name": "isApprovedForAll",
      "outputs": [
        {
          "internalType": "bool",
          "name": "",
          "type": "bool"
        }
      ],
      "stateMutability": "view",
      "type": "function"
    },
    {
      "inputs": [],
      "name": "listingFeePercent",
      "outputs": [
        {
          "internalType": "uint256",
          "name": "",
          "type": "uint256"
        }
      ],
      "stateMutability": "view",
      "type": "function"
    },
    {
      "inputs": [],
      "name": "marketplaceOwner",
      "outputs": [
        {
          "internalType": "address payable",
          "name": "",
          "type": "address"
        }
      ],
      "stateMutability": "view",
      "type": "function"
    },
    {
      "inputs": [],
      "name": "name",
      "outputs": [
        {
          "internalType": "string",
          "name": "",
          "type": "string"
        }
      ],
      "stateMutability": "view",
      "type": "function"
    },
    {
      "inputs": [
        {
          "internalType": "uint256",
          "name": "tokenId",
          "type": "uint256"
        }
      ],
      "name": "ownerOf",
      "outputs": [
        {
          "internalType": "address",
          "name": "",
          "type": "address"
        }
      ],
      "stateMutability": "view",
      "type": "function"
    },
    {
      "inputs": [
        {
          "internalType": "address",
          "name": "from",
          "type": "address"
        },
        {
          "internalType": "address",
          "name": "to",
          "type": "address"
        },
        {
          "internalType": "uint256",
          "name": "tokenId",
          "type": "uint256"
        }
      ],
      "name": "safeTransferFrom",
      "outputs": [],
      "stateMutability": "nonpayable",
      "type": "function"
    },
    {
      "inputs": [
        {
          "internalType": "address",
          "name": "from",
          "type": "address"
        },
        {
          "internalType": "address",
          "name": "to",
          "type": "address"
        },
        {
          "internalType": "uint256",
          "name": "tokenId",
          "type": "uint256"
        },
        {
          "internalType": "bytes",
          "name": "data",
          "type": "bytes"
        }
      ],
      "name": "safeTransferFrom",
      "outputs": [],
      "stateMutability": "nonpayable",
      "type": "function"
    },
    {
      "inputs": [
        {
          "internalType": "address",
          "name": "operator",
          "type": "address"
        },
        {
          "internalType": "bool",
          "name": "approved",
          "type": "bool"
        }
      ],
      "name": "setApprovalForAll",
      "outputs": [],
      "stateMutability": "nonpayable",
      "type": "function"
    },
    {
      "inputs": [
        {
          "internalType": "bytes4",
          "name": "interfaceId",
          "type": "bytes4"
        }
      ],
      "name": "supportsInterface",
      "outputs": [
        {
          "internalType": "bool",
          "name": "",
          "type": "bool"
        }
      ],
      "stateMutability": "view",
      "type": "function"
    },
    {
      "inputs": [],
      "name": "symbol",
      "outputs": [
        {
          "internalType": "string",
          "name": "",
          "type": "string"
        }
      ],
      "stateMutability": "view",
      "type": "function"
    },
    {
      "inputs": [
        {
          "internalType": "uint256",
          "name": "tokenId",
          "type": "uint256"
        }
      ],
      "name": "tokenURI",
      "outputs": [
        {
          "internalType": "string",
          "name": "",
          "type": "string"
        }
      ],
      "stateMutability": "view",
      "type": "function"
    },
    {
      "inputs": [
        {
          "internalType": "address",
          "name": "from",
          "type": "address"
        },
        {
          "internalType": "address",
          "name": "to",
          "type": "address"
        },
        {
          "internalType": "uint256",
          "name": "tokenId",
          "type": "uint256"
        }
      ],
      "name": "transferFrom",
      "outputs": [],
      "stateMutability": "nonpayable",
      "type": "function"
    },
    {
      "inputs": [
        {
          "internalType": "uint256",
          "name": "_listingFeePercent",
          "type": "uint256"
        }
      ],
      "name": "updateListingFeePercent",
      "outputs": [],
      "stateMutability": "nonpayable",
      "type": "function"
    }
  ],
  "bytecode": "0x608060405260146008553480156200001657600080fd5b506040518060400160405280601481526020017f53746f6e65416765446563656e7472616c4e46540000000000000000000000008152506040518060400160405280600781526020017f5341445f4e46540000000000000000000000000000000000000000000000000081525081600090816200009491906200036a565b508060019081620000a691906200036a565b50505033600760006101000a81548173ffffffffffffffffffffffffffffffffffffffff021916908373ffffffffffffffffffffffffffffffffffffffff16021790555062000451565b600081519050919050565b7f4e487b7100000000000000000000000000000000000000000000000000000000600052604160045260246000fd5b7f4e487b7100000000000000000000000000000000000000000000000000000000600052602260045260246000fd5b600060028204905060018216806200017257607f821691505b6020821081036200018857620001876200012a565b5b50919050565b60008190508160005260206000209050919050565b60006020601f8301049050919050565b600082821b905092915050565b600060088302620001f27fffffffffffffffffffffffffffffffffffffffffffffffffffffffffffffffff82620001b3565b620001fe8683620001b3565b95508019841693508086168417925050509392505050565b6000819050919050565b6000819050919050565b60006200024b620002456200023f8462000216565b62000220565b62000216565b9050919050565b6000819050919050565b62000267836200022a565b6200027f620002768262000252565b848454620001c0565b825550505050565b600090565b6200029662000287565b620002a38184846200025c565b505050565b5b81811015620002cb57620002bf6000826200028c565b600181019050620002a9565b5050565b601f8211156200031a57620002e4816200018e565b620002ef84620001a3565b81016020851015620002ff578190505b620003176200030e85620001a3565b830182620002a8565b50505b505050565b600082821c905092915050565b60006200033f600019846008026200031f565b1980831691505092915050565b60006200035a83836200032c565b9150826002028217905092915050565b6200037582620000f0565b67ffffffffffffffff811115620003915762000390620000fb565b5b6200039d825462000159565b620003aa828285620002cf565b600060209050601f831160018114620003e25760008415620003cd578287015190505b620003d985826200034c565b86555062000449565b601f198416620003f2866200018e565b60005b828110156200041c57848901518255600182019150602085019450602081019050620003f5565b868310156200043c578489015162000438601f8916826200032c565b8355505b6001600288020188555050505b505050505050565b6137cd80620004616000396000f3fe60806040526004361061014b5760003560e01c80636352211e116100b65780639b1225c41161006f5780639b1225c4146104bc578063a22cb465146104d8578063ac6a918514610501578063b88d4fde1461052a578063c87b56dd14610553578063e985e9c5146105905761014b565b80636352211e14610384578063650025a0146103c157806370a08231146103ec57806372b3b62014610429578063877bf83d1461046657806395d89b41146104915761014b565b806323b872dd1161010857806323b872dd1461028657806342842e0e146102af5780634b58ffaa146102d857806356189236146103035780636151ff2e1461032e578063629cb2e4146103595761014b565b806301ffc9a71461015057806306fc12451461018d57806306fdde03146101b8578063081812fc146101e3578063095ea7b3146102205780630ea59c4b14610249575b600080fd5b34801561015c57600080fd5b506101776004803603810190610172919061279b565b6105cd565b60405161018491906127e3565b60405180910390f35b34801561019957600080fd5b506101a261062e565b6040516101af9190612817565b60405180910390f35b3480156101c457600080fd5b506101cd610638565b6040516101da91906128c2565b60405180910390f35b3480156101ef57600080fd5b5061020a60048036038101906102059190612910565b6106ca565b604051610217919061297e565b60405180910390f35b34801561022c57600080fd5b50610247600480360381019061024291906129c5565b6106e6565b005b34801561025557600080fd5b50610270600480360381019061026b9190612910565b6106fc565b60405161027d9190612a8a565b60405180910390f35b34801561029257600080fd5b506102ad60048036038101906102a89190612aa5565b6107e9565b005b3480156102bb57600080fd5b506102d660048036038101906102d19190612aa5565b6108eb565b005b3480156102e457600080fd5b506102ed61090b565b6040516102fa9190612bfc565b60405180910390f35b34801561030f57600080fd5b50610318610ab2565b6040516103259190612817565b60405180910390f35b34801561033a57600080fd5b50610343610abc565b6040516103509190612817565b60405180910390f35b34801561036557600080fd5b5061036e610ac2565b60405161037b9190612bfc565b60405180910390f35b34801561039057600080fd5b506103ab60048036038101906103a69190612910565b610e70565b6040516103b8919061297e565b60405180910390f35b3480156103cd57600080fd5b506103d6610e82565b6040516103e39190612c2d565b60405180910390f35b3480156103f857600080fd5b50610413600480360381019061040e9190612c48565b610ea8565b6040516104209190612817565b60405180910390f35b34801561043557600080fd5b50610450600480360381019061044b9190612daa565b610f62565b60405161045d9190612817565b60405180910390f35b34801561047257600080fd5b5061047b610fab565b6040516104889190612817565b60405180910390f35b34801561049d57600080fd5b506104a6610fb5565b6040516104b391906128c2565b60405180910390f35b6104d660048036038101906104d19190612910565b611047565b005b3480156104e457600080fd5b506104ff60048036038101906104fa9190612e32565b6112cf565b005b34801561050d57600080fd5b5061052860048036038101906105239190612910565b6112e5565b005b34801561053657600080fd5b50610551600480360381019061054c9190612f13565b61137f565b005b34801561055f57600080fd5b5061057a60048036038101906105759190612910565b61139c565b60405161058791906128c2565b60405180910390f35b34801561059c57600080fd5b506105b760048036038101906105b29190612f96565b6114af565b6040516105c491906127e3565b60405180910390f35b6000634906490660e01b7bffffffffffffffffffffffffffffffffffffffffffffffffffffffff1916827bffffffffffffffffffffffffffffffffffffffffffffffffffffffff19161480610627575061062682611543565b5b9050919050565b6000600854905090565b60606000805461064790613005565b80601f016020809104026020016040519081016040528092919081815260200182805461067390613005565b80156106c05780601f10610695576101008083540402835291602001916106c0565b820191906000526020600020905b8154815290600101906020018083116106a357829003601f168201915b5050505050905090565b60006106d582611625565b506106df826116ad565b9050919050565b6106f882826106f36116ea565b6116f2565b5050565b6107046126db565b600b6000838152602001908152602001600020604051806080016040529081600082015481526020016001820160009054906101000a900473ffffffffffffffffffffffffffffffffffffffff1673ffffffffffffffffffffffffffffffffffffffff1673ffffffffffffffffffffffffffffffffffffffff1681526020016002820160009054906101000a900473ffffffffffffffffffffffffffffffffffffffff1673ffffffffffffffffffffffffffffffffffffffff1673ffffffffffffffffffffffffffffffffffffffff1681526020016003820154815250509050919050565b600073ffffffffffffffffffffffffffffffffffffffff168273ffffffffffffffffffffffffffffffffffffffff160361085b5760006040517f64a0ae92000000000000000000000000000000000000000000000000000000008152600401610852919061297e565b60405180910390fd5b600061086f838361086a6116ea565b611704565b90508373ffffffffffffffffffffffffffffffffffffffff168173ffffffffffffffffffffffffffffffffffffffff16146108e5578382826040517f64283d7b0000000000000000000000000000000000000000000000000000000081526004016108dc93929190613036565b60405180910390fd5b50505050565b6109068383836040518060200160405280600081525061137f565b505050565b60606000600954905060008167ffffffffffffffff8111156109305761092f612c7f565b5b60405190808252806020026020018201604052801561096957816020015b6109566126db565b81526020019060019003908161094e5790505b5090506000805b83811015610aa8576000600182610987919061309c565b90506000600b6000838152602001908152602001600020905080604051806080016040529081600082015481526020016001820160009054906101000a900473ffffffffffffffffffffffffffffffffffffffff1673ffffffffffffffffffffffffffffffffffffffff1673ffffffffffffffffffffffffffffffffffffffff1681526020016002820160009054906101000a900473ffffffffffffffffffffffffffffffffffffffff1673ffffffffffffffffffffffffffffffffffffffff1673ffffffffffffffffffffffffffffffffffffffff168152602001600382015481525050858581518110610a7f57610a7e6130d0565b5b6020026020010181905250600184610a97919061309c565b935050508080600101915050610970565b5081935050505090565b6000600954905090565b60085481565b60606000600954905060008060005b83811015610be3573373ffffffffffffffffffffffffffffffffffffffff16600b6000600184610b01919061309c565b815260200190815260200160002060010160009054906101000a900473ffffffffffffffffffffffffffffffffffffffff1673ffffffffffffffffffffffffffffffffffffffff161480610bc257503373ffffffffffffffffffffffffffffffffffffffff16600b6000600184610b78919061309c565b815260200190815260200160002060020160009054906101000a900473ffffffffffffffffffffffffffffffffffffffff1673ffffffffffffffffffffffffffffffffffffffff16145b15610bd6578280610bd2906130ff565b9350505b8080600101915050610ad1565b5060008267ffffffffffffffff811115610c0057610bff612c7f565b5b604051908082528060200260200182016040528015610c3957816020015b610c266126db565b815260200190600190039081610c1e5790505b50905060005b84811015610e65573373ffffffffffffffffffffffffffffffffffffffff16600b6000600184610c6f919061309c565b815260200190815260200160002060010160009054906101000a900473ffffffffffffffffffffffffffffffffffffffff1673ffffffffffffffffffffffffffffffffffffffff161480610d3057503373ffffffffffffffffffffffffffffffffffffffff16600b6000600184610ce6919061309c565b815260200190815260200160002060020160009054906101000a900473ffffffffffffffffffffffffffffffffffffffff1673ffffffffffffffffffffffffffffffffffffffff16145b15610e58576000600182610d44919061309c565b90506000600b6000838152602001908152602001600020905080604051806080016040529081600082015481526020016001820160009054906101000a900473ffffffffffffffffffffffffffffffffffffffff1673ffffffffffffffffffffffffffffffffffffffff1673ffffffffffffffffffffffffffffffffffffffff1681526020016002820160009054906101000a900473ffffffffffffffffffffffffffffffffffffffff1673ffffffffffffffffffffffffffffffffffffffff1673ffffffffffffffffffffffffffffffffffffffff168152602001600382015481525050848681518110610e3c57610e3b6130d0565b5b60200260200101819052508480610e52906130ff565b95505050505b8080600101915050610c3f565b508094505050505090565b6000610e7b82611625565b9050919050565b600760009054906101000a900473ffffffffffffffffffffffffffffffffffffffff1681565b60008073ffffffffffffffffffffffffffffffffffffffff168273ffffffffffffffffffffffffffffffffffffffff1603610f1b5760006040517f89c62b64000000000000000000000000000000000000000000000000000000008152600401610f12919061297e565b60405180910390fd5b600360008373ffffffffffffffffffffffffffffffffffffffff1673ffffffffffffffffffffffffffffffffffffffff168152602001908152602001600020549050919050565b600060096000815480929190610f77906130ff565b919050555060006009549050610f8d338261191e565b610f97818561193c565b610fa18184611998565b8091505092915050565b6000600a54905090565b606060018054610fc490613005565b80601f0160208091040260200160405190810160405280929190818152602001828054610ff090613005565b801561103d5780601f106110125761010080835404028352916020019161103d565b820191906000526020600020905b81548152906001019060200180831161102057829003601f168201915b5050505050905090565b6000600b6000838152602001908152602001600020905060008160030154905060008260020160009054906101000a900473ffffffffffffffffffffffffffffffffffffffff169050600073ffffffffffffffffffffffffffffffffffffffff168360010160009054906101000a900473ffffffffffffffffffffffffffffffffffffffff1673ffffffffffffffffffffffffffffffffffffffff1603611123576040517f08c379a000000000000000000000000000000000000000000000000000000000815260040161111a90613193565b60405180910390fd5b813414611165576040517f08c379a000000000000000000000000000000000000000000000000000000000815260040161115c90613225565b60405180910390fd5b338360010160006101000a81548173ffffffffffffffffffffffffffffffffffffffff021916908373ffffffffffffffffffffffffffffffffffffffff160217905550600a60008154809291906111bb906130ff565b91905055506111ef8360010160009054906101000a900473ffffffffffffffffffffffffffffffffffffffff163386611aa1565b60006064600854846112019190613245565b61120b91906132b6565b9050600760009054906101000a900473ffffffffffffffffffffffffffffffffffffffff1673ffffffffffffffffffffffffffffffffffffffff166108fc829081150290604051600060405180830381858888f19350505050158015611275573d6000803e3d6000fd5b508173ffffffffffffffffffffffffffffffffffffffff166108fc823461129c91906132e7565b9081150290604051600060405180830381858888f193505050501580156112c7573d6000803e3d6000fd5b505050505050565b6112e16112da6116ea565b8383611c0e565b5050565b600760009054906101000a900473ffffffffffffffffffffffffffffffffffffffff1673ffffffffffffffffffffffffffffffffffffffff163373ffffffffffffffffffffffffffffffffffffffff1614611375576040517f08c379a000000000000000000000000000000000000000000000000000000000815260040161136c9061338d565b60405180910390fd5b8060088190555050565b61138a8484846107e9565b61139684848484611d7d565b50505050565b60606113a782611625565b5060006006600084815260200190815260200160002080546113c890613005565b80601f01602080910402602001604051908101604052809291908181526020018280546113f490613005565b80156114415780601f1061141657610100808354040283529160200191611441565b820191906000526020600020905b81548152906001019060200180831161142457829003601f168201915b505050505090506000611452611f34565b905060008151036114675781925050506114aa565b60008251111561149c5780826040516020016114849291906133e9565b604051602081830303815290604052925050506114aa565b6114a584611f4b565b925050505b919050565b6000600560008473ffffffffffffffffffffffffffffffffffffffff1673ffffffffffffffffffffffffffffffffffffffff16815260200190815260200160002060008373ffffffffffffffffffffffffffffffffffffffff1673ffffffffffffffffffffffffffffffffffffffff16815260200190815260200160002060009054906101000a900460ff16905092915050565b60007f80ac58cd000000000000000000000000000000000000000000000000000000007bffffffffffffffffffffffffffffffffffffffffffffffffffffffff1916827bffffffffffffffffffffffffffffffffffffffffffffffffffffffff1916148061160e57507f5b5e139f000000000000000000000000000000000000000000000000000000007bffffffffffffffffffffffffffffffffffffffffffffffffffffffff1916827bffffffffffffffffffffffffffffffffffffffffffffffffffffffff1916145b8061161e575061161d82611fb4565b5b9050919050565b6000806116318361201e565b9050600073ffffffffffffffffffffffffffffffffffffffff168173ffffffffffffffffffffffffffffffffffffffff16036116a457826040517f7e27328900000000000000000000000000000000000000000000000000000000815260040161169b9190612817565b60405180910390fd5b80915050919050565b60006004600083815260200190815260200160002060009054906101000a900473ffffffffffffffffffffffffffffffffffffffff169050919050565b600033905090565b6116ff838383600161205b565b505050565b6000806117108461201e565b9050600073ffffffffffffffffffffffffffffffffffffffff168373ffffffffffffffffffffffffffffffffffffffff161461175257611751818486612220565b5b600073ffffffffffffffffffffffffffffffffffffffff168173ffffffffffffffffffffffffffffffffffffffff16146117e35761179460008560008061205b565b6001600360008373ffffffffffffffffffffffffffffffffffffffff1673ffffffffffffffffffffffffffffffffffffffff168152602001908152602001600020600082825403925050819055505b600073ffffffffffffffffffffffffffffffffffffffff168573ffffffffffffffffffffffffffffffffffffffff1614611866576001600360008773ffffffffffffffffffffffffffffffffffffffff1673ffffffffffffffffffffffffffffffffffffffff168152602001908152602001600020600082825401925050819055505b846002600086815260200190815260200160002060006101000a81548173ffffffffffffffffffffffffffffffffffffffff021916908373ffffffffffffffffffffffffffffffffffffffff160217905550838573ffffffffffffffffffffffffffffffffffffffff168273ffffffffffffffffffffffffffffffffffffffff167fddf252ad1be2c89b69c2b068fc378daa952ba7f163c4a11628f55a4df523b3ef60405160405180910390a4809150509392505050565b6119388282604051806020016040528060008152506122e4565b5050565b8060066000848152602001908152602001600020908161195c91906135b9565b507ff8e1a15aba9398e019f0b49df1a4fde98ee17ae345cb5f6b5e2c27f5033e8ce78260405161198c9190612817565b60405180910390a15050565b60405180608001604052808381526020013373ffffffffffffffffffffffffffffffffffffffff1681526020013373ffffffffffffffffffffffffffffffffffffffff16815260200182815250600b60008481526020019081526020016000206000820151816000015560208201518160010160006101000a81548173ffffffffffffffffffffffffffffffffffffffff021916908373ffffffffffffffffffffffffffffffffffffffff16021790555060408201518160020160006101000a81548173ffffffffffffffffffffffffffffffffffffffff021916908373ffffffffffffffffffffffffffffffffffffffff160217905550606082015181600301559050505050565b600073ffffffffffffffffffffffffffffffffffffffff168273ffffffffffffffffffffffffffffffffffffffff1603611b135760006040517f64a0ae92000000000000000000000000000000000000000000000000000000008152600401611b0a919061297e565b60405180910390fd5b6000611b2183836000611704565b9050600073ffffffffffffffffffffffffffffffffffffffff168173ffffffffffffffffffffffffffffffffffffffff1603611b9457816040517f7e273289000000000000000000000000000000000000000000000000000000008152600401611b8b9190612817565b60405180910390fd5b8373ffffffffffffffffffffffffffffffffffffffff168173ffffffffffffffffffffffffffffffffffffffff1614611c08578382826040517f64283d7b000000000000000000000000000000000000000000000000000000008152600401611bff93929190613036565b60405180910390fd5b50505050565b600073ffffffffffffffffffffffffffffffffffffffff168273ffffffffffffffffffffffffffffffffffffffff1603611c7f57816040517f5b08ba18000000000000000000000000000000000000000000000000000000008152600401611c76919061297e565b60405180910390fd5b80600560008573ffffffffffffffffffffffffffffffffffffffff1673ffffffffffffffffffffffffffffffffffffffff16815260200190815260200160002060008473ffffffffffffffffffffffffffffffffffffffff1673ffffffffffffffffffffffffffffffffffffffff16815260200190815260200160002060006101000a81548160ff0219169083151502179055508173ffffffffffffffffffffffffffffffffffffffff168373ffffffffffffffffffffffffffffffffffffffff167f17307eab39ab6107e8899845ad3d59bd9653f200f220920489ca2b5937696c3183604051611d7091906127e3565b60405180910390a3505050565b60008373ffffffffffffffffffffffffffffffffffffffff163b1115611f2e578273ffffffffffffffffffffffffffffffffffffffff1663150b7a02611dc16116ea565b8685856040518563ffffffff1660e01b8152600401611de394939291906136e0565b6020604051808303816000875af1925050508015611e1f57506040513d601f19601f82011682018060405250810190611e1c9190613741565b60015b611ea3573d8060008114611e4f576040519150601f19603f3d011682016040523d82523d6000602084013e611e54565b606091505b506000815103611e9b57836040517f64a0ae92000000000000000000000000000000000000000000000000000000008152600401611e92919061297e565b60405180910390fd5b805181602001fd5b63150b7a0260e01b7bffffffffffffffffffffffffffffffffffffffffffffffffffffffff1916817bffffffffffffffffffffffffffffffffffffffffffffffffffffffff191614611f2c57836040517f64a0ae92000000000000000000000000000000000000000000000000000000008152600401611f23919061297e565b60405180910390fd5b505b50505050565b606060405180602001604052806000815250905090565b6060611f5682611625565b506000611f61611f34565b90506000815111611f815760405180602001604052806000815250611fac565b80611f8b84612300565b604051602001611f9c9291906133e9565b6040516020818303038152906040525b915050919050565b60007f01ffc9a7000000000000000000000000000000000000000000000000000000007bffffffffffffffffffffffffffffffffffffffffffffffffffffffff1916827bffffffffffffffffffffffffffffffffffffffffffffffffffffffff1916149050919050565b60006002600083815260200190815260200160002060009054906101000a900473ffffffffffffffffffffffffffffffffffffffff169050919050565b80806120945750600073ffffffffffffffffffffffffffffffffffffffff168273ffffffffffffffffffffffffffffffffffffffff1614155b156121c85760006120a484611625565b9050600073ffffffffffffffffffffffffffffffffffffffff168373ffffffffffffffffffffffffffffffffffffffff161415801561210f57508273ffffffffffffffffffffffffffffffffffffffff168173ffffffffffffffffffffffffffffffffffffffff1614155b8015612122575061212081846114af565b155b1561216457826040517fa9fbf51f00000000000000000000000000000000000000000000000000000000815260040161215b919061297e565b60405180910390fd5b81156121c657838573ffffffffffffffffffffffffffffffffffffffff168273ffffffffffffffffffffffffffffffffffffffff167f8c5be1e5ebec7d5bd14f71427d1e84f3dd0314c0f7b2291e5b200ac8c7c3b92560405160405180910390a45b505b836004600085815260200190815260200160002060006101000a81548173ffffffffffffffffffffffffffffffffffffffff021916908373ffffffffffffffffffffffffffffffffffffffff16021790555050505050565b61222b8383836123ce565b6122df57600073ffffffffffffffffffffffffffffffffffffffff168373ffffffffffffffffffffffffffffffffffffffff16036122a057806040517f7e2732890000000000000000000000000000000000000000000000000000000081526004016122979190612817565b60405180910390fd5b81816040517f177e802f0000000000000000000000000000000000000000000000000000000081526004016122d692919061376e565b60405180910390fd5b505050565b6122ee838361248f565b6122fb6000848484611d7d565b505050565b60606000600161230f84612588565b01905060008167ffffffffffffffff81111561232e5761232d612c7f565b5b6040519080825280601f01601f1916602001820160405280156123605781602001600182028036833780820191505090505b509050600082602001820190505b6001156123c3578080600190039150507f3031323334353637383961626364656600000000000000000000000000000000600a86061a8153600a85816123b7576123b6613287565b5b0494506000850361236e575b819350505050919050565b60008073ffffffffffffffffffffffffffffffffffffffff168373ffffffffffffffffffffffffffffffffffffffff161415801561248657508273ffffffffffffffffffffffffffffffffffffffff168473ffffffffffffffffffffffffffffffffffffffff161480612447575061244684846114af565b5b8061248557508273ffffffffffffffffffffffffffffffffffffffff1661246d836116ad565b73ffffffffffffffffffffffffffffffffffffffff16145b5b90509392505050565b600073ffffffffffffffffffffffffffffffffffffffff168273ffffffffffffffffffffffffffffffffffffffff16036125015760006040517f64a0ae920000000000000000000000000000000000000000000000000000000081526004016124f8919061297e565b60405180910390fd5b600061250f83836000611704565b9050600073ffffffffffffffffffffffffffffffffffffffff168173ffffffffffffffffffffffffffffffffffffffff16146125835760006040517f73c6ac6e00000000000000000000000000000000000000000000000000000000815260040161257a919061297e565b60405180910390fd5b505050565b600080600090507a184f03e93ff9f4daa797ed6e38ed64bf6a1f01000000000000000083106125e6577a184f03e93ff9f4daa797ed6e38ed64bf6a1f01000000000000000083816125dc576125db613287565b5b0492506040810190505b6d04ee2d6d415b85acef81000000008310612623576d04ee2d6d415b85acef8100000000838161261957612618613287565b5b0492506020810190505b662386f26fc10000831061265257662386f26fc10000838161264857612647613287565b5b0492506010810190505b6305f5e100831061267b576305f5e100838161267157612670613287565b5b0492506008810190505b61271083106126a057612710838161269657612695613287565b5b0492506004810190505b606483106126c357606483816126b9576126b8613287565b5b0492506002810190505b600a83106126d2576001810190505b80915050919050565b604051806080016040528060008152602001600073ffffffffffffffffffffffffffffffffffffffff168152602001600073ffffffffffffffffffffffffffffffffffffffff168152602001600081525090565b6000604051905090565b600080fd5b600080fd5b60007fffffffff0000000000000000000000000000000000000000000000000000000082169050919050565b61277881612743565b811461278357600080fd5b50565b6000813590506127958161276f565b92915050565b6000602082840312156127b1576127b0612739565b5b60006127bf84828501612786565b91505092915050565b60008115159050919050565b6127dd816127c8565b82525050565b60006020820190506127f860008301846127d4565b92915050565b6000819050919050565b612811816127fe565b82525050565b600060208201905061282c6000830184612808565b92915050565b600081519050919050565b600082825260208201905092915050565b60005b8381101561286c578082015181840152602081019050612851565b60008484015250505050565b6000601f19601f8301169050919050565b600061289482612832565b61289e818561283d565b93506128ae81856020860161284e565b6128b781612878565b840191505092915050565b600060208201905081810360008301526128dc8184612889565b905092915050565b6128ed816127fe565b81146128f857600080fd5b50565b60008135905061290a816128e4565b92915050565b60006020828403121561292657612925612739565b5b6000612934848285016128fb565b91505092915050565b600073ffffffffffffffffffffffffffffffffffffffff82169050919050565b60006129688261293d565b9050919050565b6129788161295d565b82525050565b6000602082019050612993600083018461296f565b92915050565b6129a28161295d565b81146129ad57600080fd5b50565b6000813590506129bf81612999565b92915050565b600080604083850312156129dc576129db612739565b5b60006129ea858286016129b0565b92505060206129fb858286016128fb565b9150509250929050565b612a0e816127fe565b82525050565b6000612a1f8261293d565b9050919050565b612a2f81612a14565b82525050565b608082016000820151612a4b6000850182612a05565b506020820151612a5e6020850182612a26565b506040820151612a716040850182612a26565b506060820151612a846060850182612a05565b50505050565b6000608082019050612a9f6000830184612a35565b92915050565b600080600060608486031215612abe57612abd612739565b5b6000612acc868287016129b0565b9350506020612add868287016129b0565b9250506040612aee868287016128fb565b9150509250925092565b600081519050919050565b600082825260208201905092915050565b6000819050602082019050919050565b608082016000820151612b3a6000850182612a05565b506020820151612b4d6020850182612a26565b506040820151612b606040850182612a26565b506060820151612b736060850182612a05565b50505050565b6000612b858383612b24565b60808301905092915050565b6000602082019050919050565b6000612ba982612af8565b612bb38185612b03565b9350612bbe83612b14565b8060005b83811015612bef578151612bd68882612b79565b9750612be183612b91565b925050600181019050612bc2565b5085935050505092915050565b60006020820190508181036000830152612c168184612b9e565b905092915050565b612c2781612a14565b82525050565b6000602082019050612c426000830184612c1e565b92915050565b600060208284031215612c5e57612c5d612739565b5b6000612c6c848285016129b0565b91505092915050565b600080fd5b600080fd5b7f4e487b7100000000000000000000000000000000000000000000000000000000600052604160045260246000fd5b612cb782612878565b810181811067ffffffffffffffff82111715612cd657612cd5612c7f565b5b80604052505050565b6000612ce961272f565b9050612cf58282612cae565b919050565b600067ffffffffffffffff821115612d1557612d14612c7f565b5b612d1e82612878565b9050602081019050919050565b82818337600083830152505050565b6000612d4d612d4884612cfa565b612cdf565b905082815260208101848484011115612d6957612d68612c7a565b5b612d74848285612d2b565b509392505050565b600082601f830112612d9157612d90612c75565b5b8135612da1848260208601612d3a565b91505092915050565b60008060408385031215612dc157612dc0612739565b5b600083013567ffffffffffffffff811115612ddf57612dde61273e565b5b612deb85828601612d7c565b9250506020612dfc858286016128fb565b9150509250929050565b612e0f816127c8565b8114612e1a57600080fd5b50565b600081359050612e2c81612e06565b92915050565b60008060408385031215612e4957612e48612739565b5b6000612e57858286016129b0565b9250506020612e6885828601612e1d565b9150509250929050565b600067ffffffffffffffff821115612e8d57612e8c612c7f565b5b612e9682612878565b9050602081019050919050565b6000612eb6612eb184612e72565b612cdf565b905082815260208101848484011115612ed257612ed1612c7a565b5b612edd848285612d2b565b509392505050565b600082601f830112612efa57612ef9612c75565b5b8135612f0a848260208601612ea3565b91505092915050565b60008060008060808587031215612f2d57612f2c612739565b5b6000612f3b878288016129b0565b9450506020612f4c878288016129b0565b9350506040612f5d878288016128fb565b925050606085013567ffffffffffffffff811115612f7e57612f7d61273e565b5b612f8a87828801612ee5565b91505092959194509250565b60008060408385031215612fad57612fac612739565b5b6000612fbb858286016129b0565b9250506020612fcc858286016129b0565b9150509250929050565b7f4e487b7100000000000000000000000000000000000000000000000000000000600052602260045260246000fd5b6000600282049050600182168061301d57607f821691505b6020821081036130305761302f612fd6565b5b50919050565b600060608201905061304b600083018661296f565b6130586020830185612808565b613065604083018461296f565b949350505050565b7f4e487b7100000000000000000000000000000000000000000000000000000000600052601160045260246000fd5b60006130a7826127fe565b91506130b2836127fe565b92508282019050808211156130ca576130c961306d565b5b92915050565b7f4e487b7100000000000000000000000000000000000000000000000000000000600052603260045260246000fd5b600061310a826127fe565b91507fffffffffffffffffffffffffffffffffffffffffffffffffffffffffffffffff820361313c5761313b61306d565b5b600182019050919050565b7f4e4654206e6f74206c697374656420666f722073616c65000000000000000000600082015250565b600061317d60178361283d565b915061318882613147565b602082019050919050565b600060208201905081810360008301526131ac81613170565b9050919050565b7f506c65617365207375626d6974207468652061736b696e67207072696365207460008201527f6f20636f6d706c65746520746865207075726368617365000000000000000000602082015250565b600061320f60378361283d565b915061321a826131b3565b604082019050919050565b6000602082019050818103600083015261323e81613202565b9050919050565b6000613250826127fe565b915061325b836127fe565b9250828202613269816127fe565b915082820484148315176132805761327f61306d565b5b5092915050565b7f4e487b7100000000000000000000000000000000000000000000000000000000600052601260045260246000fd5b60006132c1826127fe565b91506132cc836127fe565b9250826132dc576132db613287565b5b828204905092915050565b60006132f2826127fe565b91506132fd836127fe565b92508282039050818111156133155761331461306d565b5b92915050565b7f4f6e6c79206f776e65722063616e2063616c6c20746869732066756e6374696f60008201527f6e00000000000000000000000000000000000000000000000000000000000000602082015250565b600061337760218361283d565b91506133828261331b565b604082019050919050565b600060208201905081810360008301526133a68161336a565b9050919050565b600081905092915050565b60006133c382612832565b6133cd81856133ad565b93506133dd81856020860161284e565b80840191505092915050565b60006133f582856133b8565b915061340182846133b8565b91508190509392505050565b60008190508160005260206000209050919050565b60006020601f8301049050919050565b600082821b905092915050565b60006008830261346f7fffffffffffffffffffffffffffffffffffffffffffffffffffffffffffffffff82613432565b6134798683613432565b95508019841693508086168417925050509392505050565b6000819050919050565b60006134b66134b16134ac846127fe565b613491565b6127fe565b9050919050565b6000819050919050565b6134d08361349b565b6134e46134dc826134bd565b84845461343f565b825550505050565b600090565b6134f96134ec565b6135048184846134c7565b505050565b5b818110156135285761351d6000826134f1565b60018101905061350a565b5050565b601f82111561356d5761353e8161340d565b61354784613422565b81016020851015613556578190505b61356a61356285613422565b830182613509565b50505b505050565b600082821c905092915050565b600061359060001984600802613572565b1980831691505092915050565b60006135a9838361357f565b9150826002028217905092915050565b6135c282612832565b67ffffffffffffffff8111156135db576135da612c7f565b5b6135e58254613005565b6135f082828561352c565b600060209050601f8311600181146136235760008415613611578287015190505b61361b858261359d565b865550613683565b601f1984166136318661340d565b60005b8281101561365957848901518255600182019150602085019450602081019050613634565b868310156136765784890151613672601f89168261357f565b8355505b6001600288020188555050505b505050505050565b600081519050919050565b600082825260208201905092915050565b60006136b28261368b565b6136bc8185613696565b93506136cc81856020860161284e565b6136d581612878565b840191505092915050565b60006080820190506136f5600083018761296f565b613702602083018661296f565b61370f6040830185612808565b818103606083015261372181846136a7565b905095945050505050565b60008151905061373b8161276f565b92915050565b60006020828403121561375757613756612739565b5b60006137658482850161372c565b91505092915050565b6000604082019050613783600083018561296f565b6137906020830184612808565b939250505056fea26469706673582212204960b21a1255f16456cd2a2b13375101b41898498f79bdbdae53b8ab71d1073b64736f6c63430008180033",
  "linkReferences": {},
  "deployedLinkReferences": {}
}