{
  "_format": "hh-sol-artifact-1",
  "contractName": "NFTSTORE_NOLIST",
  "sourceName": "contracts/StoneAgeDecentral/NFTSTORE_NOLIST.sol",
  "abi": [
    {
      "inputs": [],
      "stateMutability": "nonpayable",
      "type": "constructor"
    },
    {
      "inputs": [
        {
          "internalType": "address",
          "name": "sender",
          "type": "address"
        },
        {
          "internalType": "uint256",
          "name": "tokenId",
          "type": "uint256"
        },
        {
          "internalType": "address",
          "name": "owner",
          "type": "address"
        }
      ],
      "name": "ERC721IncorrectOwner",
      "type": "error"
    },
    {
      "inputs": [
        {
          "internalType": "address",
          "name": "operator",
          "type": "address"
        },
        {
          "internalType": "uint256",
          "name": "tokenId",
          "type": "uint256"
        }
      ],
      "name": "ERC721InsufficientApproval",
      "type": "error"
    },
    {
      "inputs": [
        {
          "internalType": "address",
          "name": "approver",
          "type": "address"
        }
      ],
      "name": "ERC721InvalidApprover",
      "type": "error"
    },
    {
      "inputs": [
        {
          "internalType": "address",
          "name": "operator",
          "type": "address"
        }
      ],
      "name": "ERC721InvalidOperator",
      "type": "error"
    },
    {
      "inputs": [
        {
          "internalType": "address",
          "name": "owner",
          "type": "address"
        }
      ],
      "name": "ERC721InvalidOwner",
      "type": "error"
    },
    {
      "inputs": [
        {
          "internalType": "address",
          "name": "receiver",
          "type": "address"
        }
      ],
      "name": "ERC721InvalidReceiver",
      "type": "error"
    },
    {
      "inputs": [
        {
          "internalType": "address",
          "name": "sender",
          "type": "address"
        }
      ],
      "name": "ERC721InvalidSender",
      "type": "error"
    },
    {
      "inputs": [
        {
          "internalType": "uint256",
          "name": "tokenId",
          "type": "uint256"
        }
      ],
      "name": "ERC721NonexistentToken",
      "type": "error"
    },
    {
      "anonymous": false,
      "inputs": [
        {
          "indexed": true,
          "internalType": "address",
          "name": "owner",
          "type": "address"
        },
        {
          "indexed": true,
          "internalType": "address",
          "name": "approved",
          "type": "address"
        },
        {
          "indexed": true,
          "internalType": "uint256",
          "name": "tokenId",
          "type": "uint256"
        }
      ],
      "name": "Approval",
      "type": "event"
    },
    {
      "anonymous": false,
      "inputs": [
        {
          "indexed": true,
          "internalType": "address",
          "name": "owner",
          "type": "address"
        },
        {
          "indexed": true,
          "internalType": "address",
          "name": "operator",
          "type": "address"
        },
        {
          "indexed": false,
          "internalType": "bool",
          "name": "approved",
          "type": "bool"
        }
      ],
      "name": "ApprovalForAll",
      "type": "event"
    },
    {
      "anonymous": false,
      "inputs": [
        {
          "indexed": false,
          "internalType": "uint256",
          "name": "_fromTokenId",
          "type": "uint256"
        },
        {
          "indexed": false,
          "internalType": "uint256",
          "name": "_toTokenId",
          "type": "uint256"
        }
      ],
      "name": "BatchMetadataUpdate",
      "type": "event"
    },
    {
      "anonymous": false,
      "inputs": [
        {
          "indexed": false,
          "internalType": "uint256",
          "name": "_tokenId",
          "type": "uint256"
        }
      ],
      "name": "MetadataUpdate",
      "type": "event"
    },
    {
      "anonymous": false,
      "inputs": [
        {
          "indexed": false,
          "internalType": "uint256",
          "name": "tokenId",
          "type": "uint256"
        }
      ],
      "name": "TokenCreated",
      "type": "event"
    },
    {
      "anonymous": false,
      "inputs": [
        {
          "indexed": false,
          "internalType": "uint256",
          "name": "tokenId",
          "type": "uint256"
        },
        {
          "indexed": false,
          "internalType": "uint256",
          "name": "price",
          "type": "uint256"
        }
      ],
      "name": "TokenListed",
      "type": "event"
    },
    {
      "anonymous": false,
      "inputs": [
        {
          "indexed": false,
          "internalType": "uint256",
          "name": "tokenId",
          "type": "uint256"
        },
        {
          "indexed": false,
          "internalType": "address",
          "name": "buyer",
          "type": "address"
        },
        {
          "indexed": false,
          "internalType": "uint256",
          "name": "price",
          "type": "uint256"
        }
      ],
      "name": "TokenSold",
      "type": "event"
    },
    {
      "anonymous": false,
      "inputs": [
        {
          "indexed": true,
          "internalType": "address",
          "name": "from",
          "type": "address"
        },
        {
          "indexed": true,
          "internalType": "address",
          "name": "to",
          "type": "address"
        },
        {
          "indexed": true,
          "internalType": "uint256",
          "name": "tokenId",
          "type": "uint256"
        }
      ],
      "name": "Transfer",
      "type": "event"
    },
    {
      "inputs": [
        {
          "internalType": "address",
          "name": "to",
          "type": "address"
        },
        {
          "internalType": "uint256",
          "name": "tokenId",
          "type": "uint256"
        }
      ],
      "name": "approve",
      "outputs": [],
      "stateMutability": "nonpayable",
      "type": "function"
    },
    {
      "inputs": [
        {
          "internalType": "address",
          "name": "owner",
          "type": "address"
        }
      ],
      "name": "balanceOf",
      "outputs": [
        {
          "internalType": "uint256",
          "name": "",
          "type": "uint256"
        }
      ],
      "stateMutability": "view",
      "type": "function"
    },
    {
      "inputs": [
        {
          "internalType": "uint256",
          "name": "tokenId",
          "type": "uint256"
        },
        {
          "internalType": "string",
          "name": "tokenURI",
          "type": "string"
        }
      ],
      "name": "createToken",
      "outputs": [],
      "stateMutability": "nonpayable",
      "type": "function"
    },
    {
      "inputs": [
        {
          "internalType": "uint256",
          "name": "tokenId",
          "type": "uint256"
        }
      ],
      "name": "executeSale",
      "outputs": [],
      "stateMutability": "payable",
      "type": "function"
    },
    {
      "inputs": [],
      "name": "getAllListedNFTs",
      "outputs": [
        {
          "components": [
            {
              "internalType": "uint256",
              "name": "tokenId",
              "type": "uint256"
            },
            {
              "internalType": "uint256",
              "name": "price",
              "type": "uint256"
            },
            {
              "internalType": "address payable",
              "name": "seller",
              "type": "address"
            },
            {
              "internalType": "bool",
              "name": "isListed",
              "type": "bool"
            }
          ],
          "internalType": "struct NFTSTORE_NOLIST.NFTListing[]",
          "name": "",
          "type": "tuple[]"
        }
      ],
      "stateMutability": "view",
      "type": "function"
    },
    {
      "inputs": [
        {
          "internalType": "uint256",
          "name": "tokenId",
          "type": "uint256"
        }
      ],
      "name": "getApproved",
      "outputs": [
        {
          "internalType": "address",
          "name": "",
          "type": "address"
        }
      ],
      "stateMutability": "view",
      "type": "function"
    },
    {
      "inputs": [],
      "name": "getMyListedTokens",
      "outputs": [
        {
          "components": [
            {
              "internalType": "uint256",
              "name": "tokenId",
              "type": "uint256"
            },
            {
              "internalType": "uint256",
              "name": "price",
              "type": "uint256"
            },
            {
              "internalType": "address payable",
              "name": "seller",
              "type": "address"
            },
            {
              "internalType": "bool",
              "name": "isListed",
              "type": "bool"
            }
          ],
          "internalType": "struct NFTSTORE_NOLIST.NFTListing[]",
          "name": "",
          "type": "tuple[]"
        }
      ],
      "stateMutability": "view",
      "type": "function"
    },
    {
      "inputs": [],
      "name": "getMyTokens",
      "outputs": [
        {
          "internalType": "uint256[]",
          "name": "",
          "type": "uint256[]"
        }
      ],
      "stateMutability": "view",
      "type": "function"
    },
    {
      "inputs": [
        {
          "internalType": "address",
          "name": "owner",
          "type": "address"
        },
        {
          "internalType": "address",
          "name": "operator",
          "type": "address"
        }
      ],
      "name": "isApprovedForAll",
      "outputs": [
        {
          "internalType": "bool",
          "name": "",
          "type": "bool"
        }
      ],
      "stateMutability": "view",
      "type": "function"
    },
    {
      "inputs": [
        {
          "internalType": "uint256",
          "name": "tokenId",
          "type": "uint256"
        }
      ],
      "name": "isTokenListed",
      "outputs": [
        {
          "internalType": "bool",
          "name": "",
          "type": "bool"
        }
      ],
      "stateMutability": "view",
      "type": "function"
    },
    {
      "inputs": [
        {
          "internalType": "uint256",
          "name": "tokenId",
          "type": "uint256"
        },
        {
          "internalType": "uint256",
          "name": "price",
          "type": "uint256"
        }
      ],
      "name": "listToken",
      "outputs": [],
      "stateMutability": "nonpayable",
      "type": "function"
    },
    {
      "inputs": [],
      "name": "listingFeePercent",
      "outputs": [
        {
          "internalType": "uint256",
          "name": "",
          "type": "uint256"
        }
      ],
      "stateMutability": "view",
      "type": "function"
    },
    {
      "inputs": [],
      "name": "marketplaceOwner",
      "outputs": [
        {
          "internalType": "address payable",
          "name": "",
          "type": "address"
        }
      ],
      "stateMutability": "view",
      "type": "function"
    },
    {
      "inputs": [],
      "name": "name",
      "outputs": [
        {
          "internalType": "string",
          "name": "",
          "type": "string"
        }
      ],
      "stateMutability": "view",
      "type": "function"
    },
    {
      "inputs": [
        {
          "internalType": "uint256",
          "name": "tokenId",
          "type": "uint256"
        }
      ],
      "name": "ownerOf",
      "outputs": [
        {
          "internalType": "address",
          "name": "",
          "type": "address"
        }
      ],
      "stateMutability": "view",
      "type": "function"
    },
    {
      "inputs": [
        {
          "internalType": "address",
          "name": "",
          "type": "address"
        },
        {
          "internalType": "uint256",
          "name": "",
          "type": "uint256"
        }
      ],
      "name": "ownerToTokenIds",
      "outputs": [
        {
          "internalType": "uint256",
          "name": "",
          "type": "uint256"
        }
      ],
      "stateMutability": "view",
      "type": "function"
    },
    {
      "inputs": [
        {
          "internalType": "uint256",
          "name": "tokenId",
          "type": "uint256"
        },
        {
          "internalType": "uint256",
          "name": "price",
          "type": "uint256"
        }
      ],
      "name": "relistToken",
      "outputs": [],
      "stateMutability": "nonpayable",
      "type": "function"
    },
    {
      "inputs": [
        {
          "internalType": "address",
          "name": "from",
          "type": "address"
        },
        {
          "internalType": "address",
          "name": "to",
          "type": "address"
        },
        {
          "internalType": "uint256",
          "name": "tokenId",
          "type": "uint256"
        }
      ],
      "name": "safeTransferFrom",
      "outputs": [],
      "stateMutability": "nonpayable",
      "type": "function"
    },
    {
      "inputs": [
        {
          "internalType": "address",
          "name": "from",
          "type": "address"
        },
        {
          "internalType": "address",
          "name": "to",
          "type": "address"
        },
        {
          "internalType": "uint256",
          "name": "tokenId",
          "type": "uint256"
        },
        {
          "internalType": "bytes",
          "name": "data",
          "type": "bytes"
        }
      ],
      "name": "safeTransferFrom",
      "outputs": [],
      "stateMutability": "nonpayable",
      "type": "function"
    },
    {
      "inputs": [
        {
          "internalType": "address",
          "name": "operator",
          "type": "address"
        },
        {
          "internalType": "bool",
          "name": "approved",
          "type": "bool"
        }
      ],
      "name": "setApprovalForAll",
      "outputs": [],
      "stateMutability": "nonpayable",
      "type": "function"
    },
    {
      "inputs": [
        {
          "internalType": "bytes4",
          "name": "interfaceId",
          "type": "bytes4"
        }
      ],
      "name": "supportsInterface",
      "outputs": [
        {
          "internalType": "bool",
          "name": "",
          "type": "bool"
        }
      ],
      "stateMutability": "view",
      "type": "function"
    },
    {
      "inputs": [],
      "name": "symbol",
      "outputs": [
        {
          "internalType": "string",
          "name": "",
          "type": "string"
        }
      ],
      "stateMutability": "view",
      "type": "function"
    },
    {
      "inputs": [
        {
          "internalType": "uint256",
          "name": "",
          "type": "uint256"
        }
      ],
      "name": "tokenIdToListing",
      "outputs": [
        {
          "internalType": "uint256",
          "name": "tokenId",
          "type": "uint256"
        },
        {
          "internalType": "uint256",
          "name": "price",
          "type": "uint256"
        },
        {
          "internalType": "address payable",
          "name": "seller",
          "type": "address"
        },
        {
          "internalType": "bool",
          "name": "isListed",
          "type": "bool"
        }
      ],
      "stateMutability": "view",
      "type": "function"
    },
    {
      "inputs": [
        {
          "internalType": "uint256",
          "name": "tokenId",
          "type": "uint256"
        }
      ],
      "name": "tokenURI",
      "outputs": [
        {
          "internalType": "string",
          "name": "",
          "type": "string"
        }
      ],
      "stateMutability": "view",
      "type": "function"
    },
    {
      "inputs": [],
      "name": "totalItemsSold",
      "outputs": [
        {
          "internalType": "uint256",
          "name": "",
          "type": "uint256"
        }
      ],
      "stateMutability": "view",
      "type": "function"
    },
    {
      "inputs": [
        {
          "internalType": "address",
          "name": "from",
          "type": "address"
        },
        {
          "internalType": "address",
          "name": "to",
          "type": "address"
        },
        {
          "internalType": "uint256",
          "name": "tokenId",
          "type": "uint256"
        }
      ],
      "name": "transferFrom",
      "outputs": [],
      "stateMutability": "nonpayable",
      "type": "function"
    },
    {
      "inputs": [
        {
          "internalType": "uint256",
          "name": "_listingFeePercent",
          "type": "uint256"
        }
      ],
      "name": "updateListingFeePercent",
      "outputs": [],
      "stateMutability": "nonpayable",
      "type": "function"
    }
  ],
  "bytecode": "0x60806040523480156200001157600080fd5b506040518060400160405280601581526020017f53746f6e65416765446563656e7472616c204e465400000000000000000000008152506040518060400160405280600681526020017f5341444e4654000000000000000000000000000000000000000000000000000081525081600090816200008f91906200036d565b508060019081620000a191906200036d565b505050600560078190555033600960006101000a81548173ffffffffffffffffffffffffffffffffffffffff021916908373ffffffffffffffffffffffffffffffffffffffff16021790555062000454565b600081519050919050565b7f4e487b7100000000000000000000000000000000000000000000000000000000600052604160045260246000fd5b7f4e487b7100000000000000000000000000000000000000000000000000000000600052602260045260246000fd5b600060028204905060018216806200017557607f821691505b6020821081036200018b576200018a6200012d565b5b50919050565b60008190508160005260206000209050919050565b60006020601f8301049050919050565b600082821b905092915050565b600060088302620001f57fffffffffffffffffffffffffffffffffffffffffffffffffffffffffffffffff82620001b6565b620002018683620001b6565b95508019841693508086168417925050509392505050565b6000819050919050565b6000819050919050565b60006200024e62000248620002428462000219565b62000223565b62000219565b9050919050565b6000819050919050565b6200026a836200022d565b62000282620002798262000255565b848454620001c3565b825550505050565b600090565b620002996200028a565b620002a68184846200025f565b505050565b5b81811015620002ce57620002c26000826200028f565b600181019050620002ac565b5050565b601f8211156200031d57620002e78162000191565b620002f284620001a6565b8101602085101562000302578190505b6200031a6200031185620001a6565b830182620002ab565b50505b505050565b600082821c905092915050565b6000620003426000198460080262000322565b1980831691505092915050565b60006200035d83836200032f565b9150826002028217905092915050565b6200037882620000f3565b67ffffffffffffffff811115620003945762000393620000fe565b5b620003a082546200015c565b620003ad828285620002d2565b600060209050601f831160018114620003e55760008415620003d0578287015190505b620003dc85826200034f565b8655506200044c565b601f198416620003f58662000191565b60005b828110156200041f57848901518255600182019150602085019450602081019050620003f8565b868310156200043f57848901516200043b601f8916826200032f565b8355505b6001600288020188555050505b505050505050565b61440480620004646000396000f3fe60806040526004361061019c5760003560e01c8063650025a0116100ec5780639b83cddc1161008a578063b88d4fde11610064578063b88d4fde146105cb578063c87b56dd146105f4578063e985e9c514610631578063ffde808d1461066e5761019c565b80639b83cddc1461053c578063a22cb46514610579578063ac6a9185146105a25761019c565b806375c1631d116100c657806375c1631d146104a15780637c5e59be146104ca57806395d89b41146104f55780639b1225c4146105205761019c565b8063650025a0146103fc57806368a596c71461042757806370a08231146104645761019c565b806328e5d54f116101595780635b3b136a116101335780635b3b136a146103405780635e6b3c181461036b5780636151ff2e146103945780636352211e146103bf5761019c565b806328e5d54f146102c157806342842e0e146102ec5780634b58ffaa146103155761019c565b806301ffc9a7146101a157806306fdde03146101de578063081812fc14610209578063095ea7b3146102465780631b3efe851461026f57806323b872dd14610298575b600080fd5b3480156101ad57600080fd5b506101c860048036038101906101c39190612fa0565b6106ae565b6040516101d59190612fe8565b60405180910390f35b3480156101ea57600080fd5b506101f361070f565b6040516102009190613093565b60405180910390f35b34801561021557600080fd5b50610230600480360381019061022b91906130eb565b6107a1565b60405161023d9190613159565b60405180910390f35b34801561025257600080fd5b5061026d600480360381019061026891906131a0565b6107bd565b005b34801561027b57600080fd5b5061029660048036038101906102919190613315565b6107d3565b005b3480156102a457600080fd5b506102bf60048036038101906102ba9190613371565b610918565b005b3480156102cd57600080fd5b506102d6610a1a565b6040516102e391906133d3565b60405180910390f35b3480156102f857600080fd5b50610313600480360381019061030e9190613371565b610a20565b005b34801561032157600080fd5b5061032a610a40565b6040516103379190613531565b60405180910390f35b34801561034c57600080fd5b50610355610dd7565b6040516103629190613602565b60405180910390f35b34801561037757600080fd5b50610392600480360381019061038d9190613624565b610e6c565b005b3480156103a057600080fd5b506103a9610f9e565b6040516103b691906133d3565b60405180910390f35b3480156103cb57600080fd5b506103e660048036038101906103e191906130eb565b610fa4565b6040516103f39190613159565b60405180910390f35b34801561040857600080fd5b50610411610fb6565b60405161041e9190613673565b60405180910390f35b34801561043357600080fd5b5061044e600480360381019061044991906131a0565b610fdc565b60405161045b91906133d3565b60405180910390f35b34801561047057600080fd5b5061048b6004803603810190610486919061368e565b61100d565b60405161049891906133d3565b60405180910390f35b3480156104ad57600080fd5b506104c860048036038101906104c39190613624565b6110c7565b005b3480156104d657600080fd5b506104df61118f565b6040516104ec9190613531565b60405180910390f35b34801561050157600080fd5b5061050a61142d565b6040516105179190613093565b60405180910390f35b61053a600480360381019061053591906130eb565b6114bf565b005b34801561054857600080fd5b50610563600480360381019061055e91906130eb565b6117d7565b6040516105709190612fe8565b60405180910390f35b34801561058557600080fd5b506105a0600480360381019061059b91906136e7565b611804565b005b3480156105ae57600080fd5b506105c960048036038101906105c491906130eb565b61181a565b005b3480156105d757600080fd5b506105f260048036038101906105ed91906137c8565b6118b4565b005b34801561060057600080fd5b5061061b600480360381019061061691906130eb565b6118d1565b6040516106289190613093565b60405180910390f35b34801561063d57600080fd5b506106586004803603810190610653919061384b565b6119e4565b6040516106659190612fe8565b60405180910390f35b34801561067a57600080fd5b50610695600480360381019061069091906130eb565b611a78565b6040516106a5949392919061388b565b60405180910390f35b6000634906490660e01b7bffffffffffffffffffffffffffffffffffffffffffffffffffffffff1916827bffffffffffffffffffffffffffffffffffffffffffffffffffffffff19161480610708575061070782611ad5565b5b9050919050565b60606000805461071e906138ff565b80601f016020809104026020016040519081016040528092919081815260200182805461074a906138ff565b80156107975780601f1061076c57610100808354040283529160200191610797565b820191906000526020600020905b81548152906001019060200180831161077a57829003601f168201915b5050505050905090565b60006107ac82611bb7565b506107b682611c3f565b9050919050565b6107cf82826107ca611c7c565b611c84565b5050565b600960009054906101000a900473ffffffffffffffffffffffffffffffffffffffff1673ffffffffffffffffffffffffffffffffffffffff163373ffffffffffffffffffffffffffffffffffffffff1614610863576040517f08c379a000000000000000000000000000000000000000000000000000000000815260040161085a906139a2565b60405180910390fd5b61086d3383611c96565b6108778282611d8f565b600b60003373ffffffffffffffffffffffffffffffffffffffff1673ffffffffffffffffffffffffffffffffffffffff1681526020019081526020016000208290806001815401808255809150506001900390600052602060002001600090919091909150557f5871761b381266e7e47309f0821d5b396364ebb6371d878871cac5393cb93ea88260405161090c91906133d3565b60405180910390a15050565b600073ffffffffffffffffffffffffffffffffffffffff168273ffffffffffffffffffffffffffffffffffffffff160361098a5760006040517f64a0ae920000000000000000000000000000000000000000000000000000000081526004016109819190613159565b60405180910390fd5b600061099e8383610999611c7c565b611deb565b90508373ffffffffffffffffffffffffffffffffffffffff168173ffffffffffffffffffffffffffffffffffffffff1614610a14578382826040517f64283d7b000000000000000000000000000000000000000000000000000000008152600401610a0b939291906139c2565b60405180910390fd5b50505050565b60085481565b610a3b838383604051806020016040528060008152506118b4565b505050565b606060008060005b600b6000600960009054906101000a900473ffffffffffffffffffffffffffffffffffffffff1673ffffffffffffffffffffffffffffffffffffffff1673ffffffffffffffffffffffffffffffffffffffff16815260200190815260200160002080549050811015610b7c576000600b6000600960009054906101000a900473ffffffffffffffffffffffffffffffffffffffff1673ffffffffffffffffffffffffffffffffffffffff1673ffffffffffffffffffffffffffffffffffffffff1681526020019081526020016000208281548110610b2957610b286139f9565b5b90600052602060002001549050600a600082815260200190815260200160002060020160149054906101000a900460ff1615610b6e578380610b6a90613a57565b9450505b508080600101915050610a48565b5060008267ffffffffffffffff811115610b9957610b986131ea565b5b604051908082528060200260200182016040528015610bd257816020015b610bbf612ef4565b815260200190600190039081610bb75790505b50905060005b600b6000600960009054906101000a900473ffffffffffffffffffffffffffffffffffffffff1673ffffffffffffffffffffffffffffffffffffffff1673ffffffffffffffffffffffffffffffffffffffff16815260200190815260200160002080549050811015610dcd576000600b6000600960009054906101000a900473ffffffffffffffffffffffffffffffffffffffff1673ffffffffffffffffffffffffffffffffffffffff1673ffffffffffffffffffffffffffffffffffffffff1681526020019081526020016000208281548110610cb957610cb86139f9565b5b90600052602060002001549050600a600082815260200190815260200160002060020160149054906101000a900460ff1615610dbf57600a600082815260200190815260200160002060405180608001604052908160008201548152602001600182015481526020016002820160009054906101000a900473ffffffffffffffffffffffffffffffffffffffff1673ffffffffffffffffffffffffffffffffffffffff1673ffffffffffffffffffffffffffffffffffffffff1681526020016002820160149054906101000a900460ff161515151581525050838581518110610da557610da46139f9565b5b60200260200101819052508380610dbb90613a57565b9450505b508080600101915050610bd8565b5080935050505090565b6060600b60003373ffffffffffffffffffffffffffffffffffffffff1673ffffffffffffffffffffffffffffffffffffffff168152602001908152602001600020805480602002602001604051908101604052809291908181526020018280548015610e6257602002820191906000526020600020905b815481526020019060010190808311610e4e575b5050505050905090565b3373ffffffffffffffffffffffffffffffffffffffff16610e8c83610fa4565b73ffffffffffffffffffffffffffffffffffffffff1614610ee2576040517f08c379a0000000000000000000000000000000000000000000000000000000008152600401610ed990613b11565b60405180910390fd5b60008111610f25576040517f08c379a0000000000000000000000000000000000000000000000000000000008152600401610f1c90613b7d565b60405180910390fd5b6000600a600084815260200190815260200160002090508060020160149054906101000a900460ff1615610f8e576040517f08c379a0000000000000000000000000000000000000000000000000000000008152600401610f8590613be9565b60405180910390fd5b610f99838333612005565b505050565b60075481565b6000610faf82611bb7565b9050919050565b600960009054906101000a900473ffffffffffffffffffffffffffffffffffffffff1681565b600b6020528160005260406000208181548110610ff857600080fd5b90600052602060002001600091509150505481565b60008073ffffffffffffffffffffffffffffffffffffffff168273ffffffffffffffffffffffffffffffffffffffff16036110805760006040517f89c62b640000000000000000000000000000000000000000000000000000000081526004016110779190613159565b60405180910390fd5b600360008373ffffffffffffffffffffffffffffffffffffffff1673ffffffffffffffffffffffffffffffffffffffff168152602001908152602001600020549050919050565b3373ffffffffffffffffffffffffffffffffffffffff166110e783610fa4565b73ffffffffffffffffffffffffffffffffffffffff161461113d576040517f08c379a000000000000000000000000000000000000000000000000000000000815260040161113490613b11565b60405180910390fd5b60008111611180576040517f08c379a000000000000000000000000000000000000000000000000000000000815260040161117790613b7d565b60405180910390fd5b61118b828233612005565b5050565b60606000806000600b60003373ffffffffffffffffffffffffffffffffffffffff1673ffffffffffffffffffffffffffffffffffffffff16815260200190815260200160002080548060200260200160405190810160405280929190818152602001828054801561121f57602002820191906000526020600020905b81548152602001906001019080831161120b575b5050505050905060005b8151811015611297576000828281518110611247576112466139f9565b5b60200260200101519050600a600082815260200190815260200160002060020160149054906101000a900460ff161561128957848061128590613a57565b9550505b508080600101915050611229565b5060008367ffffffffffffffff8111156112b4576112b36131ea565b5b6040519080825280602002602001820160405280156112ed57816020015b6112da612ef4565b8152602001906001900390816112d25790505b50905060005b8251811015611422576000838281518110611311576113106139f9565b5b60200260200101519050600a600082815260200190815260200160002060020160149054906101000a900460ff161561141457600a600082815260200190815260200160002060405180608001604052908160008201548152602001600182015481526020016002820160009054906101000a900473ffffffffffffffffffffffffffffffffffffffff1673ffffffffffffffffffffffffffffffffffffffff1673ffffffffffffffffffffffffffffffffffffffff1681526020016002820160149054906101000a900460ff1615151515815250508386815181106113fa576113f96139f9565b5b6020026020010181905250848061141090613a57565b9550505b5080806001019150506112f3565b508094505050505090565b60606001805461143c906138ff565b80601f0160208091040260200160405190810160405280929190818152602001828054611468906138ff565b80156114b55780601f1061148a576101008083540402835291602001916114b5565b820191906000526020600020905b81548152906001019060200180831161149857829003601f168201915b5050505050905090565b600960149054906101000a900460ff161561150f576040517f08c379a000000000000000000000000000000000000000000000000000000000815260040161150690613c55565b60405180910390fd5b6001600960146101000a81548160ff0219169083151502179055506000600a6000838152602001908152602001600020905060008160010154905060008260020160009054906101000a900473ffffffffffffffffffffffffffffffffffffffff1690506000670de0b6b3a7640000905082813461158d9190613c75565b10156115ce576040517f08c379a00000000000000000000000000000000000000000000000000000000081526004016115c590613d1b565b60405180910390fd5b8360020160149054906101000a900460ff1661161f576040517f08c379a000000000000000000000000000000000000000000000000000000000815260040161161690613dad565b60405180910390fd5b338460020160006101000a81548173ffffffffffffffffffffffffffffffffffffffff021916908373ffffffffffffffffffffffffffffffffffffffff16021790555060008460020160146101000a81548160ff0219169083151502179055506008600081548092919061169290613a57565b91905055506116aa6116a386610fa4565b33876120cd565b6116b4828661223a565b600b60003373ffffffffffffffffffffffffffffffffffffffff1673ffffffffffffffffffffffffffffffffffffffff168152602001908152602001600020859080600181540180825580915050600190039060005260206000200160009091909190915055600060646007548561172c9190613dcd565b6117369190613e3e565b9050611764600960009054906101000a900473ffffffffffffffffffffffffffffffffffffffff168261248b565b6117798382346117749190613e6f565b61248b565b7f5de13defa3534de0567d51e62e997235f1c1e8ddc82289aeaca94516a358d5398633866040516117ac93929190613ea3565b60405180910390a150505050506000600960146101000a81548160ff02191690831515021790555050565b6000600a600083815260200190815260200160002060020160149054906101000a900460ff169050919050565b61181661180f611c7c565b838361253c565b5050565b600960009054906101000a900473ffffffffffffffffffffffffffffffffffffffff1673ffffffffffffffffffffffffffffffffffffffff163373ffffffffffffffffffffffffffffffffffffffff16146118aa576040517f08c379a00000000000000000000000000000000000000000000000000000000081526004016118a1906139a2565b60405180910390fd5b8060078190555050565b6118bf848484610918565b6118cb848484846126ab565b50505050565b60606118dc82611bb7565b5060006006600084815260200190815260200160002080546118fd906138ff565b80601f0160208091040260200160405190810160405280929190818152602001828054611929906138ff565b80156119765780601f1061194b57610100808354040283529160200191611976565b820191906000526020600020905b81548152906001019060200180831161195957829003601f168201915b505050505090506000611987612862565b9050600081510361199c5781925050506119df565b6000825111156119d15780826040516020016119b9929190613f16565b604051602081830303815290604052925050506119df565b6119da84612879565b925050505b919050565b6000600560008473ffffffffffffffffffffffffffffffffffffffff1673ffffffffffffffffffffffffffffffffffffffff16815260200190815260200160002060008373ffffffffffffffffffffffffffffffffffffffff1673ffffffffffffffffffffffffffffffffffffffff16815260200190815260200160002060009054906101000a900460ff16905092915050565b600a6020528060005260406000206000915090508060000154908060010154908060020160009054906101000a900473ffffffffffffffffffffffffffffffffffffffff16908060020160149054906101000a900460ff16905084565b60007f80ac58cd000000000000000000000000000000000000000000000000000000007bffffffffffffffffffffffffffffffffffffffffffffffffffffffff1916827bffffffffffffffffffffffffffffffffffffffffffffffffffffffff19161480611ba057507f5b5e139f000000000000000000000000000000000000000000000000000000007bffffffffffffffffffffffffffffffffffffffffffffffffffffffff1916827bffffffffffffffffffffffffffffffffffffffffffffffffffffffff1916145b80611bb05750611baf826128e2565b5b9050919050565b600080611bc38361294c565b9050600073ffffffffffffffffffffffffffffffffffffffff168173ffffffffffffffffffffffffffffffffffffffff1603611c3657826040517f7e273289000000000000000000000000000000000000000000000000000000008152600401611c2d91906133d3565b60405180910390fd5b80915050919050565b60006004600083815260200190815260200160002060009054906101000a900473ffffffffffffffffffffffffffffffffffffffff169050919050565b600033905090565b611c918383836001612989565b505050565b600073ffffffffffffffffffffffffffffffffffffffff168273ffffffffffffffffffffffffffffffffffffffff1603611d085760006040517f64a0ae92000000000000000000000000000000000000000000000000000000008152600401611cff9190613159565b60405180910390fd5b6000611d1683836000611deb565b9050600073ffffffffffffffffffffffffffffffffffffffff168173ffffffffffffffffffffffffffffffffffffffff1614611d8a5760006040517f73c6ac6e000000000000000000000000000000000000000000000000000000008152600401611d819190613159565b60405180910390fd5b505050565b80600660008481526020019081526020016000209081611daf91906140e6565b507ff8e1a15aba9398e019f0b49df1a4fde98ee17ae345cb5f6b5e2c27f5033e8ce782604051611ddf91906133d3565b60405180910390a15050565b600080611df78461294c565b9050600073ffffffffffffffffffffffffffffffffffffffff168373ffffffffffffffffffffffffffffffffffffffff1614611e3957611e38818486612b4e565b5b600073ffffffffffffffffffffffffffffffffffffffff168173ffffffffffffffffffffffffffffffffffffffff1614611eca57611e7b600085600080612989565b6001600360008373ffffffffffffffffffffffffffffffffffffffff1673ffffffffffffffffffffffffffffffffffffffff168152602001908152602001600020600082825403925050819055505b600073ffffffffffffffffffffffffffffffffffffffff168573ffffffffffffffffffffffffffffffffffffffff1614611f4d576001600360008773ffffffffffffffffffffffffffffffffffffffff1673ffffffffffffffffffffffffffffffffffffffff168152602001908152602001600020600082825401925050819055505b846002600086815260200190815260200160002060006101000a81548173ffffffffffffffffffffffffffffffffffffffff021916908373ffffffffffffffffffffffffffffffffffffffff160217905550838573ffffffffffffffffffffffffffffffffffffffff168273ffffffffffffffffffffffffffffffffffffffff167fddf252ad1be2c89b69c2b068fc378daa952ba7f163c4a11628f55a4df523b3ef60405160405180910390a4809150509392505050565b6000600a60008581526020019081526020016000209050838160000181905550828160010181905550818160020160006101000a81548173ffffffffffffffffffffffffffffffffffffffff021916908373ffffffffffffffffffffffffffffffffffffffff16021790555060018160020160146101000a81548160ff0219169083151502179055507f1ea85aaf6731daa0c29195039c2a36576fb04e2cd16335504fab8967dfb03f1584846040516120bf9291906141b8565b60405180910390a150505050565b600073ffffffffffffffffffffffffffffffffffffffff168273ffffffffffffffffffffffffffffffffffffffff160361213f5760006040517f64a0ae920000000000000000000000000000000000000000000000000000000081526004016121369190613159565b60405180910390fd5b600061214d83836000611deb565b9050600073ffffffffffffffffffffffffffffffffffffffff168173ffffffffffffffffffffffffffffffffffffffff16036121c057816040517f7e2732890000000000000000000000000000000000000000000000000000000081526004016121b791906133d3565b60405180910390fd5b8373ffffffffffffffffffffffffffffffffffffffff168173ffffffffffffffffffffffffffffffffffffffff1614612234578382826040517f64283d7b00000000000000000000000000000000000000000000000000000000815260040161222b939291906139c2565b60405180910390fd5b50505050565b60006001600b60008573ffffffffffffffffffffffffffffffffffffffff1673ffffffffffffffffffffffffffffffffffffffff1681526020019081526020016000208054905061228b9190613e6f565b9050600080600090505b600b60008673ffffffffffffffffffffffffffffffffffffffff1673ffffffffffffffffffffffffffffffffffffffff168152602001908152602001600020805490508110156123565783600b60008773ffffffffffffffffffffffffffffffffffffffff1673ffffffffffffffffffffffffffffffffffffffff1681526020019081526020016000208281548110612331576123306139f9565b5b90600052602060002001540361234957809150612356565b8080600101915050612295565b50818114612420576000600b60008673ffffffffffffffffffffffffffffffffffffffff1673ffffffffffffffffffffffffffffffffffffffff16815260200190815260200160002083815481106123b1576123b06139f9565b5b9060005260206000200154905080600b60008773ffffffffffffffffffffffffffffffffffffffff1673ffffffffffffffffffffffffffffffffffffffff16815260200190815260200160002083815481106124105761240f6139f9565b5b9060005260206000200181905550505b600b60008573ffffffffffffffffffffffffffffffffffffffff1673ffffffffffffffffffffffffffffffffffffffff16815260200190815260200160002080548061246f5761246e6141e1565b5b6001900381819060005260206000200160009055905550505050565b60008273ffffffffffffffffffffffffffffffffffffffff16826040516124b190614241565b60006040518083038185875af1925050503d80600081146124ee576040519150601f19603f3d011682016040523d82523d6000602084013e6124f3565b606091505b5050905080612537576040517f08c379a000000000000000000000000000000000000000000000000000000000815260040161252e906142a2565b60405180910390fd5b505050565b600073ffffffffffffffffffffffffffffffffffffffff168273ffffffffffffffffffffffffffffffffffffffff16036125ad57816040517f5b08ba180000000000000000000000000000000000000000000000000000000081526004016125a49190613159565b60405180910390fd5b80600560008573ffffffffffffffffffffffffffffffffffffffff1673ffffffffffffffffffffffffffffffffffffffff16815260200190815260200160002060008473ffffffffffffffffffffffffffffffffffffffff1673ffffffffffffffffffffffffffffffffffffffff16815260200190815260200160002060006101000a81548160ff0219169083151502179055508173ffffffffffffffffffffffffffffffffffffffff168373ffffffffffffffffffffffffffffffffffffffff167f17307eab39ab6107e8899845ad3d59bd9653f200f220920489ca2b5937696c318360405161269e9190612fe8565b60405180910390a3505050565b60008373ffffffffffffffffffffffffffffffffffffffff163b111561285c578273ffffffffffffffffffffffffffffffffffffffff1663150b7a026126ef611c7c565b8685856040518563ffffffff1660e01b81526004016127119493929190614317565b6020604051808303816000875af192505050801561274d57506040513d601f19601f8201168201806040525081019061274a9190614378565b60015b6127d1573d806000811461277d576040519150601f19603f3d011682016040523d82523d6000602084013e612782565b606091505b5060008151036127c957836040517f64a0ae920000000000000000000000000000000000000000000000000000000081526004016127c09190613159565b60405180910390fd5b805181602001fd5b63150b7a0260e01b7bffffffffffffffffffffffffffffffffffffffffffffffffffffffff1916817bffffffffffffffffffffffffffffffffffffffffffffffffffffffff19161461285a57836040517f64a0ae920000000000000000000000000000000000000000000000000000000081526004016128519190613159565b60405180910390fd5b505b50505050565b606060405180602001604052806000815250905090565b606061288482611bb7565b50600061288f612862565b905060008151116128af57604051806020016040528060008152506128da565b806128b984612c12565b6040516020016128ca929190613f16565b6040516020818303038152906040525b915050919050565b60007f01ffc9a7000000000000000000000000000000000000000000000000000000007bffffffffffffffffffffffffffffffffffffffffffffffffffffffff1916827bffffffffffffffffffffffffffffffffffffffffffffffffffffffff1916149050919050565b60006002600083815260200190815260200160002060009054906101000a900473ffffffffffffffffffffffffffffffffffffffff169050919050565b80806129c25750600073ffffffffffffffffffffffffffffffffffffffff168273ffffffffffffffffffffffffffffffffffffffff1614155b15612af65760006129d284611bb7565b9050600073ffffffffffffffffffffffffffffffffffffffff168373ffffffffffffffffffffffffffffffffffffffff1614158015612a3d57508273ffffffffffffffffffffffffffffffffffffffff168173ffffffffffffffffffffffffffffffffffffffff1614155b8015612a505750612a4e81846119e4565b155b15612a9257826040517fa9fbf51f000000000000000000000000000000000000000000000000000000008152600401612a899190613159565b60405180910390fd5b8115612af457838573ffffffffffffffffffffffffffffffffffffffff168273ffffffffffffffffffffffffffffffffffffffff167f8c5be1e5ebec7d5bd14f71427d1e84f3dd0314c0f7b2291e5b200ac8c7c3b92560405160405180910390a45b505b836004600085815260200190815260200160002060006101000a81548173ffffffffffffffffffffffffffffffffffffffff021916908373ffffffffffffffffffffffffffffffffffffffff16021790555050505050565b612b59838383612ce0565b612c0d57600073ffffffffffffffffffffffffffffffffffffffff168373ffffffffffffffffffffffffffffffffffffffff1603612bce57806040517f7e273289000000000000000000000000000000000000000000000000000000008152600401612bc591906133d3565b60405180910390fd5b81816040517f177e802f000000000000000000000000000000000000000000000000000000008152600401612c049291906143a5565b60405180910390fd5b505050565b606060006001612c2184612da1565b01905060008167ffffffffffffffff811115612c4057612c3f6131ea565b5b6040519080825280601f01601f191660200182016040528015612c725781602001600182028036833780820191505090505b509050600082602001820190505b600115612cd5578080600190039150507f3031323334353637383961626364656600000000000000000000000000000000600a86061a8153600a8581612cc957612cc8613e0f565b5b04945060008503612c80575b819350505050919050565b60008073ffffffffffffffffffffffffffffffffffffffff168373ffffffffffffffffffffffffffffffffffffffff1614158015612d9857508273ffffffffffffffffffffffffffffffffffffffff168473ffffffffffffffffffffffffffffffffffffffff161480612d595750612d5884846119e4565b5b80612d9757508273ffffffffffffffffffffffffffffffffffffffff16612d7f83611c3f565b73ffffffffffffffffffffffffffffffffffffffff16145b5b90509392505050565b600080600090507a184f03e93ff9f4daa797ed6e38ed64bf6a1f0100000000000000008310612dff577a184f03e93ff9f4daa797ed6e38ed64bf6a1f0100000000000000008381612df557612df4613e0f565b5b0492506040810190505b6d04ee2d6d415b85acef81000000008310612e3c576d04ee2d6d415b85acef81000000008381612e3257612e31613e0f565b5b0492506020810190505b662386f26fc100008310612e6b57662386f26fc100008381612e6157612e60613e0f565b5b0492506010810190505b6305f5e1008310612e94576305f5e1008381612e8a57612e89613e0f565b5b0492506008810190505b6127108310612eb9576127108381612eaf57612eae613e0f565b5b0492506004810190505b60648310612edc5760648381612ed257612ed1613e0f565b5b0492506002810190505b600a8310612eeb576001810190505b80915050919050565b60405180608001604052806000815260200160008152602001600073ffffffffffffffffffffffffffffffffffffffff1681526020016000151581525090565b6000604051905090565b600080fd5b600080fd5b60007fffffffff0000000000000000000000000000000000000000000000000000000082169050919050565b612f7d81612f48565b8114612f8857600080fd5b50565b600081359050612f9a81612f74565b92915050565b600060208284031215612fb657612fb5612f3e565b5b6000612fc484828501612f8b565b91505092915050565b60008115159050919050565b612fe281612fcd565b82525050565b6000602082019050612ffd6000830184612fd9565b92915050565b600081519050919050565b600082825260208201905092915050565b60005b8381101561303d578082015181840152602081019050613022565b60008484015250505050565b6000601f19601f8301169050919050565b600061306582613003565b61306f818561300e565b935061307f81856020860161301f565b61308881613049565b840191505092915050565b600060208201905081810360008301526130ad818461305a565b905092915050565b6000819050919050565b6130c8816130b5565b81146130d357600080fd5b50565b6000813590506130e5816130bf565b92915050565b60006020828403121561310157613100612f3e565b5b600061310f848285016130d6565b91505092915050565b600073ffffffffffffffffffffffffffffffffffffffff82169050919050565b600061314382613118565b9050919050565b61315381613138565b82525050565b600060208201905061316e600083018461314a565b92915050565b61317d81613138565b811461318857600080fd5b50565b60008135905061319a81613174565b92915050565b600080604083850312156131b7576131b6612f3e565b5b60006131c58582860161318b565b92505060206131d6858286016130d6565b9150509250929050565b600080fd5b600080fd5b7f4e487b7100000000000000000000000000000000000000000000000000000000600052604160045260246000fd5b61322282613049565b810181811067ffffffffffffffff82111715613241576132406131ea565b5b80604052505050565b6000613254612f34565b90506132608282613219565b919050565b600067ffffffffffffffff8211156132805761327f6131ea565b5b61328982613049565b9050602081019050919050565b82818337600083830152505050565b60006132b86132b384613265565b61324a565b9050828152602081018484840111156132d4576132d36131e5565b5b6132df848285613296565b509392505050565b600082601f8301126132fc576132fb6131e0565b5b813561330c8482602086016132a5565b91505092915050565b6000806040838503121561332c5761332b612f3e565b5b600061333a858286016130d6565b925050602083013567ffffffffffffffff81111561335b5761335a612f43565b5b613367858286016132e7565b9150509250929050565b60008060006060848603121561338a57613389612f3e565b5b60006133988682870161318b565b93505060206133a98682870161318b565b92505060406133ba868287016130d6565b9150509250925092565b6133cd816130b5565b82525050565b60006020820190506133e860008301846133c4565b92915050565b600081519050919050565b600082825260208201905092915050565b6000819050602082019050919050565b613423816130b5565b82525050565b600061343482613118565b9050919050565b61344481613429565b82525050565b61345381612fcd565b82525050565b60808201600082015161346f600085018261341a565b506020820151613482602085018261341a565b506040820151613495604085018261343b565b5060608201516134a8606085018261344a565b50505050565b60006134ba8383613459565b60808301905092915050565b6000602082019050919050565b60006134de826133ee565b6134e881856133f9565b93506134f38361340a565b8060005b8381101561352457815161350b88826134ae565b9750613516836134c6565b9250506001810190506134f7565b5085935050505092915050565b6000602082019050818103600083015261354b81846134d3565b905092915050565b600081519050919050565b600082825260208201905092915050565b6000819050602082019050919050565b600061358b838361341a565b60208301905092915050565b6000602082019050919050565b60006135af82613553565b6135b9818561355e565b93506135c48361356f565b8060005b838110156135f55781516135dc888261357f565b97506135e783613597565b9250506001810190506135c8565b5085935050505092915050565b6000602082019050818103600083015261361c81846135a4565b905092915050565b6000806040838503121561363b5761363a612f3e565b5b6000613649858286016130d6565b925050602061365a858286016130d6565b9150509250929050565b61366d81613429565b82525050565b60006020820190506136886000830184613664565b92915050565b6000602082840312156136a4576136a3612f3e565b5b60006136b28482850161318b565b91505092915050565b6136c481612fcd565b81146136cf57600080fd5b50565b6000813590506136e1816136bb565b92915050565b600080604083850312156136fe576136fd612f3e565b5b600061370c8582860161318b565b925050602061371d858286016136d2565b9150509250929050565b600067ffffffffffffffff821115613742576137416131ea565b5b61374b82613049565b9050602081019050919050565b600061376b61376684613727565b61324a565b905082815260208101848484011115613787576137866131e5565b5b613792848285613296565b509392505050565b600082601f8301126137af576137ae6131e0565b5b81356137bf848260208601613758565b91505092915050565b600080600080608085870312156137e2576137e1612f3e565b5b60006137f08782880161318b565b94505060206138018782880161318b565b9350506040613812878288016130d6565b925050606085013567ffffffffffffffff81111561383357613832612f43565b5b61383f8782880161379a565b91505092959194509250565b6000806040838503121561386257613861612f3e565b5b60006138708582860161318b565b92505060206138818582860161318b565b9150509250929050565b60006080820190506138a060008301876133c4565b6138ad60208301866133c4565b6138ba6040830185613664565b6138c76060830184612fd9565b95945050505050565b7f4e487b7100000000000000000000000000000000000000000000000000000000600052602260045260246000fd5b6000600282049050600182168061391757607f821691505b60208210810361392a576139296138d0565b5b50919050565b7f4f6e6c79206f776e65722063616e2063616c6c20746869732066756e6374696f60008201527f6e00000000000000000000000000000000000000000000000000000000000000602082015250565b600061398c60218361300e565b915061399782613930565b604082019050919050565b600060208201905081810360008301526139bb8161397f565b9050919050565b60006060820190506139d7600083018661314a565b6139e460208301856133c4565b6139f1604083018461314a565b949350505050565b7f4e487b7100000000000000000000000000000000000000000000000000000000600052603260045260246000fd5b7f4e487b7100000000000000000000000000000000000000000000000000000000600052601160045260246000fd5b6000613a62826130b5565b91507fffffffffffffffffffffffffffffffffffffffffffffffffffffffffffffffff8203613a9457613a93613a28565b5b600182019050919050565b7f596f7520617265206e6f7420746865206f776e6572206f66207468697320746f60008201527f6b656e0000000000000000000000000000000000000000000000000000000000602082015250565b6000613afb60238361300e565b9150613b0682613a9f565b604082019050919050565b60006020820190508181036000830152613b2a81613aee565b9050919050565b7f5072696365206d7573742062652067726561746572207468616e207a65726f00600082015250565b6000613b67601f8361300e565b9150613b7282613b31565b602082019050919050565b60006020820190508181036000830152613b9681613b5a565b9050919050565b7f546865204e465420697320616c7265616479206c697374656400000000000000600082015250565b6000613bd360198361300e565b9150613bde82613b9d565b602082019050919050565b60006020820190508181036000830152613c0281613bc6565b9050919050565b7f5265656e7472616e742063616c6c2e0000000000000000000000000000000000600082015250565b6000613c3f600f8361300e565b9150613c4a82613c09565b602082019050919050565b60006020820190508181036000830152613c6e81613c32565b9050919050565b6000613c80826130b5565b9150613c8b836130b5565b9250828201905080821115613ca357613ca2613a28565b5b92915050565b7f506c65617365207375626d6974207468652061736b696e67207072696365207460008201527f6f20636f6d706c65746520746865207075726368617365000000000000000000602082015250565b6000613d0560378361300e565b9150613d1082613ca9565b604082019050919050565b60006020820190508181036000830152613d3481613cf8565b9050919050565b7f5468697320746f6b656e206973206e6f74206c697374656420666f722073616c60008201527f6500000000000000000000000000000000000000000000000000000000000000602082015250565b6000613d9760218361300e565b9150613da282613d3b565b604082019050919050565b60006020820190508181036000830152613dc681613d8a565b9050919050565b6000613dd8826130b5565b9150613de3836130b5565b9250828202613df1816130b5565b91508282048414831517613e0857613e07613a28565b5b5092915050565b7f4e487b7100000000000000000000000000000000000000000000000000000000600052601260045260246000fd5b6000613e49826130b5565b9150613e54836130b5565b925082613e6457613e63613e0f565b5b828204905092915050565b6000613e7a826130b5565b9150613e85836130b5565b9250828203905081811115613e9d57613e9c613a28565b5b92915050565b6000606082019050613eb860008301866133c4565b613ec5602083018561314a565b613ed260408301846133c4565b949350505050565b600081905092915050565b6000613ef082613003565b613efa8185613eda565b9350613f0a81856020860161301f565b80840191505092915050565b6000613f228285613ee5565b9150613f2e8284613ee5565b91508190509392505050565b60008190508160005260206000209050919050565b60006020601f8301049050919050565b600082821b905092915050565b600060088302613f9c7fffffffffffffffffffffffffffffffffffffffffffffffffffffffffffffffff82613f5f565b613fa68683613f5f565b95508019841693508086168417925050509392505050565b6000819050919050565b6000613fe3613fde613fd9846130b5565b613fbe565b6130b5565b9050919050565b6000819050919050565b613ffd83613fc8565b61401161400982613fea565b848454613f6c565b825550505050565b600090565b614026614019565b614031818484613ff4565b505050565b5b818110156140555761404a60008261401e565b600181019050614037565b5050565b601f82111561409a5761406b81613f3a565b61407484613f4f565b81016020851015614083578190505b61409761408f85613f4f565b830182614036565b50505b505050565b600082821c905092915050565b60006140bd6000198460080261409f565b1980831691505092915050565b60006140d683836140ac565b9150826002028217905092915050565b6140ef82613003565b67ffffffffffffffff811115614108576141076131ea565b5b61411282546138ff565b61411d828285614059565b600060209050601f831160018114614150576000841561413e578287015190505b61414885826140ca565b8655506141b0565b601f19841661415e86613f3a565b60005b8281101561418657848901518255600182019150602085019450602081019050614161565b868310156141a3578489015161419f601f8916826140ac565b8355505b6001600288020188555050505b505050505050565b60006040820190506141cd60008301856133c4565b6141da60208301846133c4565b9392505050565b7f4e487b7100000000000000000000000000000000000000000000000000000000600052603160045260246000fd5b600081905092915050565b50565b600061422b600083614210565b91506142368261421b565b600082019050919050565b600061424c8261421e565b9150819050919050565b7f5472616e73666572206661696c65642e00000000000000000000000000000000600082015250565b600061428c60108361300e565b915061429782614256565b602082019050919050565b600060208201905081810360008301526142bb8161427f565b9050919050565b600081519050919050565b600082825260208201905092915050565b60006142e9826142c2565b6142f381856142cd565b935061430381856020860161301f565b61430c81613049565b840191505092915050565b600060808201905061432c600083018761314a565b614339602083018661314a565b61434660408301856133c4565b818103606083015261435881846142de565b905095945050505050565b60008151905061437281612f74565b92915050565b60006020828403121561438e5761438d612f3e565b5b600061439c84828501614363565b91505092915050565b60006040820190506143ba600083018561314a565b6143c760208301846133c4565b939250505056fea2646970667358221220f0448d617506cb698b7c1a422c3a9ddfc909a97fcea09fcd2c1f41ffd13a9b0564736f6c63430008180033",
  "linkReferences": {},
  "deployedLinkReferences": {}
}