{
  "_format": "hh-sol-artifact-1",
  "contractName": "NFTSTORE",
  "sourceName": "contracts/StoneAgeDecentral/NFTSTORE.sol",
  "abi": [
    {
      "inputs": [],
      "stateMutability": "nonpayable",
      "type": "constructor"
    },
    {
      "inputs": [
        {
          "internalType": "address",
          "name": "sender",
          "type": "address"
        },
        {
          "internalType": "uint256",
          "name": "tokenId",
          "type": "uint256"
        },
        {
          "internalType": "address",
          "name": "owner",
          "type": "address"
        }
      ],
      "name": "ERC721IncorrectOwner",
      "type": "error"
    },
    {
      "inputs": [
        {
          "internalType": "address",
          "name": "operator",
          "type": "address"
        },
        {
          "internalType": "uint256",
          "name": "tokenId",
          "type": "uint256"
        }
      ],
      "name": "ERC721InsufficientApproval",
      "type": "error"
    },
    {
      "inputs": [
        {
          "internalType": "address",
          "name": "approver",
          "type": "address"
        }
      ],
      "name": "ERC721InvalidApprover",
      "type": "error"
    },
    {
      "inputs": [
        {
          "internalType": "address",
          "name": "operator",
          "type": "address"
        }
      ],
      "name": "ERC721InvalidOperator",
      "type": "error"
    },
    {
      "inputs": [
        {
          "internalType": "address",
          "name": "owner",
          "type": "address"
        }
      ],
      "name": "ERC721InvalidOwner",
      "type": "error"
    },
    {
      "inputs": [
        {
          "internalType": "address",
          "name": "receiver",
          "type": "address"
        }
      ],
      "name": "ERC721InvalidReceiver",
      "type": "error"
    },
    {
      "inputs": [
        {
          "internalType": "address",
          "name": "sender",
          "type": "address"
        }
      ],
      "name": "ERC721InvalidSender",
      "type": "error"
    },
    {
      "inputs": [
        {
          "internalType": "uint256",
          "name": "tokenId",
          "type": "uint256"
        }
      ],
      "name": "ERC721NonexistentToken",
      "type": "error"
    },
    {
      "anonymous": false,
      "inputs": [
        {
          "indexed": true,
          "internalType": "address",
          "name": "owner",
          "type": "address"
        },
        {
          "indexed": true,
          "internalType": "address",
          "name": "approved",
          "type": "address"
        },
        {
          "indexed": true,
          "internalType": "uint256",
          "name": "tokenId",
          "type": "uint256"
        }
      ],
      "name": "Approval",
      "type": "event"
    },
    {
      "anonymous": false,
      "inputs": [
        {
          "indexed": true,
          "internalType": "address",
          "name": "owner",
          "type": "address"
        },
        {
          "indexed": true,
          "internalType": "address",
          "name": "operator",
          "type": "address"
        },
        {
          "indexed": false,
          "internalType": "bool",
          "name": "approved",
          "type": "bool"
        }
      ],
      "name": "ApprovalForAll",
      "type": "event"
    },
    {
      "anonymous": false,
      "inputs": [
        {
          "indexed": false,
          "internalType": "uint256",
          "name": "_fromTokenId",
          "type": "uint256"
        },
        {
          "indexed": false,
          "internalType": "uint256",
          "name": "_toTokenId",
          "type": "uint256"
        }
      ],
      "name": "BatchMetadataUpdate",
      "type": "event"
    },
    {
      "anonymous": false,
      "inputs": [
        {
          "indexed": false,
          "internalType": "uint256",
          "name": "_tokenId",
          "type": "uint256"
        }
      ],
      "name": "MetadataUpdate",
      "type": "event"
    },
    {
      "anonymous": false,
      "inputs": [
        {
          "indexed": false,
          "internalType": "uint256",
          "name": "tokenId",
          "type": "uint256"
        },
        {
          "indexed": false,
          "internalType": "uint256",
          "name": "price",
          "type": "uint256"
        }
      ],
      "name": "TokenCreated",
      "type": "event"
    },
    {
      "anonymous": false,
      "inputs": [
        {
          "indexed": false,
          "internalType": "uint256",
          "name": "tokenId",
          "type": "uint256"
        },
        {
          "indexed": false,
          "internalType": "uint256",
          "name": "price",
          "type": "uint256"
        }
      ],
      "name": "TokenListed",
      "type": "event"
    },
    {
      "anonymous": false,
      "inputs": [
        {
          "indexed": false,
          "internalType": "uint256",
          "name": "tokenId",
          "type": "uint256"
        },
        {
          "indexed": false,
          "internalType": "address",
          "name": "buyer",
          "type": "address"
        },
        {
          "indexed": false,
          "internalType": "uint256",
          "name": "price",
          "type": "uint256"
        }
      ],
      "name": "TokenSold",
      "type": "event"
    },
    {
      "anonymous": false,
      "inputs": [
        {
          "indexed": false,
          "internalType": "uint256",
          "name": "tokenId",
          "type": "uint256"
        }
      ],
      "name": "TokenUnlisted",
      "type": "event"
    },
    {
      "anonymous": false,
      "inputs": [
        {
          "indexed": true,
          "internalType": "address",
          "name": "from",
          "type": "address"
        },
        {
          "indexed": true,
          "internalType": "address",
          "name": "to",
          "type": "address"
        },
        {
          "indexed": true,
          "internalType": "uint256",
          "name": "tokenId",
          "type": "uint256"
        }
      ],
      "name": "Transfer",
      "type": "event"
    },
    {
      "inputs": [
        {
          "internalType": "address",
          "name": "to",
          "type": "address"
        },
        {
          "internalType": "uint256",
          "name": "tokenId",
          "type": "uint256"
        }
      ],
      "name": "approve",
      "outputs": [],
      "stateMutability": "nonpayable",
      "type": "function"
    },
    {
      "inputs": [
        {
          "internalType": "address",
          "name": "owner",
          "type": "address"
        }
      ],
      "name": "balanceOf",
      "outputs": [
        {
          "internalType": "uint256",
          "name": "",
          "type": "uint256"
        }
      ],
      "stateMutability": "view",
      "type": "function"
    },
    {
      "inputs": [
        {
          "internalType": "uint256",
          "name": "tokenId",
          "type": "uint256"
        },
        {
          "internalType": "string",
          "name": "tokenURI",
          "type": "string"
        },
        {
          "internalType": "uint256",
          "name": "price",
          "type": "uint256"
        }
      ],
      "name": "createToken",
      "outputs": [],
      "stateMutability": "nonpayable",
      "type": "function"
    },
    {
      "inputs": [
        {
          "internalType": "uint256",
          "name": "tokenId",
          "type": "uint256"
        },
        {
          "internalType": "string",
          "name": "tokenURI",
          "type": "string"
        },
        {
          "internalType": "address",
          "name": "receiver",
          "type": "address"
        }
      ],
      "name": "createTokenToAddress",
      "outputs": [],
      "stateMutability": "nonpayable",
      "type": "function"
    },
    {
      "inputs": [
        {
          "internalType": "uint256",
          "name": "tokenId",
          "type": "uint256"
        }
      ],
      "name": "executeSale",
      "outputs": [],
      "stateMutability": "payable",
      "type": "function"
    },
    {
      "inputs": [],
      "name": "getAllListedNFTs",
      "outputs": [
        {
          "components": [
            {
              "internalType": "uint256",
              "name": "tokenId",
              "type": "uint256"
            },
            {
              "internalType": "uint256",
              "name": "price",
              "type": "uint256"
            },
            {
              "internalType": "address payable",
              "name": "seller",
              "type": "address"
            },
            {
              "internalType": "bool",
              "name": "isListed",
              "type": "bool"
            }
          ],
          "internalType": "struct NFTSTORE.NFTListing[]",
          "name": "",
          "type": "tuple[]"
        }
      ],
      "stateMutability": "view",
      "type": "function"
    },
    {
      "inputs": [],
      "name": "getAllTokens",
      "outputs": [
        {
          "internalType": "uint256[]",
          "name": "",
          "type": "uint256[]"
        }
      ],
      "stateMutability": "view",
      "type": "function"
    },
    {
      "inputs": [
        {
          "internalType": "uint256",
          "name": "tokenId",
          "type": "uint256"
        }
      ],
      "name": "getApproved",
      "outputs": [
        {
          "internalType": "address",
          "name": "",
          "type": "address"
        }
      ],
      "stateMutability": "view",
      "type": "function"
    },
    {
      "inputs": [],
      "name": "getMyListedTokens",
      "outputs": [
        {
          "components": [
            {
              "internalType": "uint256",
              "name": "tokenId",
              "type": "uint256"
            },
            {
              "internalType": "uint256",
              "name": "price",
              "type": "uint256"
            },
            {
              "internalType": "address payable",
              "name": "seller",
              "type": "address"
            },
            {
              "internalType": "bool",
              "name": "isListed",
              "type": "bool"
            }
          ],
          "internalType": "struct NFTSTORE.NFTListing[]",
          "name": "",
          "type": "tuple[]"
        }
      ],
      "stateMutability": "view",
      "type": "function"
    },
    {
      "inputs": [],
      "name": "getMyTokens",
      "outputs": [
        {
          "internalType": "uint256[]",
          "name": "",
          "type": "uint256[]"
        }
      ],
      "stateMutability": "view",
      "type": "function"
    },
    {
      "inputs": [
        {
          "internalType": "uint256",
          "name": "tokenId",
          "type": "uint256"
        }
      ],
      "name": "getTokenByTokenId",
      "outputs": [
        {
          "components": [
            {
              "internalType": "uint256",
              "name": "tokenId",
              "type": "uint256"
            },
            {
              "internalType": "uint256",
              "name": "price",
              "type": "uint256"
            },
            {
              "internalType": "address payable",
              "name": "seller",
              "type": "address"
            },
            {
              "internalType": "bool",
              "name": "isListed",
              "type": "bool"
            }
          ],
          "internalType": "struct NFTSTORE.NFTListing",
          "name": "",
          "type": "tuple"
        }
      ],
      "stateMutability": "view",
      "type": "function"
    },
    {
      "inputs": [
        {
          "internalType": "address",
          "name": "owner",
          "type": "address"
        },
        {
          "internalType": "address",
          "name": "operator",
          "type": "address"
        }
      ],
      "name": "isApprovedForAll",
      "outputs": [
        {
          "internalType": "bool",
          "name": "",
          "type": "bool"
        }
      ],
      "stateMutability": "view",
      "type": "function"
    },
    {
      "inputs": [
        {
          "internalType": "uint256",
          "name": "tokenId",
          "type": "uint256"
        }
      ],
      "name": "isTokenListed",
      "outputs": [
        {
          "internalType": "bool",
          "name": "",
          "type": "bool"
        }
      ],
      "stateMutability": "view",
      "type": "function"
    },
    {
      "inputs": [
        {
          "internalType": "uint256",
          "name": "tokenId",
          "type": "uint256"
        },
        {
          "internalType": "uint256",
          "name": "price",
          "type": "uint256"
        }
      ],
      "name": "listToken",
      "outputs": [],
      "stateMutability": "nonpayable",
      "type": "function"
    },
    {
      "inputs": [],
      "name": "listingFeePercent",
      "outputs": [
        {
          "internalType": "uint256",
          "name": "",
          "type": "uint256"
        }
      ],
      "stateMutability": "view",
      "type": "function"
    },
    {
      "inputs": [],
      "name": "marketplaceOwner",
      "outputs": [
        {
          "internalType": "address payable",
          "name": "",
          "type": "address"
        }
      ],
      "stateMutability": "view",
      "type": "function"
    },
    {
      "inputs": [],
      "name": "name",
      "outputs": [
        {
          "internalType": "string",
          "name": "",
          "type": "string"
        }
      ],
      "stateMutability": "view",
      "type": "function"
    },
    {
      "inputs": [
        {
          "internalType": "uint256",
          "name": "tokenId",
          "type": "uint256"
        }
      ],
      "name": "ownerOf",
      "outputs": [
        {
          "internalType": "address",
          "name": "",
          "type": "address"
        }
      ],
      "stateMutability": "view",
      "type": "function"
    },
    {
      "inputs": [
        {
          "internalType": "address",
          "name": "",
          "type": "address"
        },
        {
          "internalType": "uint256",
          "name": "",
          "type": "uint256"
        }
      ],
      "name": "ownerToTokenIds",
      "outputs": [
        {
          "internalType": "uint256",
          "name": "",
          "type": "uint256"
        }
      ],
      "stateMutability": "view",
      "type": "function"
    },
    {
      "inputs": [
        {
          "internalType": "uint256",
          "name": "tokenId",
          "type": "uint256"
        },
        {
          "internalType": "uint256",
          "name": "price",
          "type": "uint256"
        }
      ],
      "name": "relistToken",
      "outputs": [],
      "stateMutability": "nonpayable",
      "type": "function"
    },
    {
      "inputs": [
        {
          "internalType": "address",
          "name": "from",
          "type": "address"
        },
        {
          "internalType": "address",
          "name": "to",
          "type": "address"
        },
        {
          "internalType": "uint256",
          "name": "tokenId",
          "type": "uint256"
        }
      ],
      "name": "safeTransferFrom",
      "outputs": [],
      "stateMutability": "nonpayable",
      "type": "function"
    },
    {
      "inputs": [
        {
          "internalType": "address",
          "name": "from",
          "type": "address"
        },
        {
          "internalType": "address",
          "name": "to",
          "type": "address"
        },
        {
          "internalType": "uint256",
          "name": "tokenId",
          "type": "uint256"
        },
        {
          "internalType": "bytes",
          "name": "data",
          "type": "bytes"
        }
      ],
      "name": "safeTransferFrom",
      "outputs": [],
      "stateMutability": "nonpayable",
      "type": "function"
    },
    {
      "inputs": [
        {
          "internalType": "address",
          "name": "operator",
          "type": "address"
        },
        {
          "internalType": "bool",
          "name": "approved",
          "type": "bool"
        }
      ],
      "name": "setApprovalForAll",
      "outputs": [],
      "stateMutability": "nonpayable",
      "type": "function"
    },
    {
      "inputs": [
        {
          "internalType": "bytes4",
          "name": "interfaceId",
          "type": "bytes4"
        }
      ],
      "name": "supportsInterface",
      "outputs": [
        {
          "internalType": "bool",
          "name": "",
          "type": "bool"
        }
      ],
      "stateMutability": "view",
      "type": "function"
    },
    {
      "inputs": [],
      "name": "symbol",
      "outputs": [
        {
          "internalType": "string",
          "name": "",
          "type": "string"
        }
      ],
      "stateMutability": "view",
      "type": "function"
    },
    {
      "inputs": [
        {
          "internalType": "uint256",
          "name": "",
          "type": "uint256"
        }
      ],
      "name": "tokenIdToListing",
      "outputs": [
        {
          "internalType": "uint256",
          "name": "tokenId",
          "type": "uint256"
        },
        {
          "internalType": "uint256",
          "name": "price",
          "type": "uint256"
        },
        {
          "internalType": "address payable",
          "name": "seller",
          "type": "address"
        },
        {
          "internalType": "bool",
          "name": "isListed",
          "type": "bool"
        }
      ],
      "stateMutability": "view",
      "type": "function"
    },
    {
      "inputs": [
        {
          "internalType": "uint256",
          "name": "tokenId",
          "type": "uint256"
        }
      ],
      "name": "tokenURI",
      "outputs": [
        {
          "internalType": "string",
          "name": "",
          "type": "string"
        }
      ],
      "stateMutability": "view",
      "type": "function"
    },
    {
      "inputs": [],
      "name": "totalItemsSold",
      "outputs": [
        {
          "internalType": "uint256",
          "name": "",
          "type": "uint256"
        }
      ],
      "stateMutability": "view",
      "type": "function"
    },
    {
      "inputs": [
        {
          "internalType": "address",
          "name": "from",
          "type": "address"
        },
        {
          "internalType": "address",
          "name": "to",
          "type": "address"
        },
        {
          "internalType": "uint256",
          "name": "tokenId",
          "type": "uint256"
        }
      ],
      "name": "transferFrom",
      "outputs": [],
      "stateMutability": "nonpayable",
      "type": "function"
    },
    {
      "inputs": [
        {
          "internalType": "address",
          "name": "from",
          "type": "address"
        },
        {
          "internalType": "address",
          "name": "to",
          "type": "address"
        },
        {
          "internalType": "uint256",
          "name": "tokenId",
          "type": "uint256"
        }
      ],
      "name": "transferTokenTo",
      "outputs": [],
      "stateMutability": "nonpayable",
      "type": "function"
    },
    {
      "inputs": [
        {
          "internalType": "uint256",
          "name": "tokenId",
          "type": "uint256"
        }
      ],
      "name": "unlistToken",
      "outputs": [],
      "stateMutability": "nonpayable",
      "type": "function"
    },
    {
      "inputs": [
        {
          "internalType": "uint256",
          "name": "_listingFeePercent",
          "type": "uint256"
        }
      ],
      "name": "updateListingFeePercent",
      "outputs": [],
      "stateMutability": "nonpayable",
      "type": "function"
    }
  ],
  "bytecode": "0x60806040523480156200001157600080fd5b506040518060400160405280601581526020017f53746f6e65416765446563656e7472616c204e465400000000000000000000008152506040518060400160405280600681526020017f5341444e4654000000000000000000000000000000000000000000000000000081525081600090816200008f91906200036d565b508060019081620000a191906200036d565b505050600560078190555033600960006101000a81548173ffffffffffffffffffffffffffffffffffffffff021916908373ffffffffffffffffffffffffffffffffffffffff16021790555062000454565b600081519050919050565b7f4e487b7100000000000000000000000000000000000000000000000000000000600052604160045260246000fd5b7f4e487b7100000000000000000000000000000000000000000000000000000000600052602260045260246000fd5b600060028204905060018216806200017557607f821691505b6020821081036200018b576200018a6200012d565b5b50919050565b60008190508160005260206000209050919050565b60006020601f8301049050919050565b600082821b905092915050565b600060088302620001f57fffffffffffffffffffffffffffffffffffffffffffffffffffffffffffffffff82620001b6565b620002018683620001b6565b95508019841693508086168417925050509392505050565b6000819050919050565b6000819050919050565b60006200024e62000248620002428462000219565b62000223565b62000219565b9050919050565b6000819050919050565b6200026a836200022d565b62000282620002798262000255565b848454620001c3565b825550505050565b600090565b620002996200028a565b620002a68184846200025f565b505050565b5b81811015620002ce57620002c26000826200028f565b600181019050620002ac565b5050565b601f8211156200031d57620002e78162000191565b620002f284620001a6565b8101602085101562000302578190505b6200031a6200031185620001a6565b830182620002ab565b50505b505050565b600082821c905092915050565b6000620003426000198460080262000322565b1980831691505092915050565b60006200035d83836200032f565b9150826002028217905092915050565b6200037882620000f3565b67ffffffffffffffff811115620003945762000393620000fe565b5b620003a082546200015c565b620003ad828285620002d2565b600060209050601f831160018114620003e55760008415620003d0578287015190505b620003dc85826200034f565b8655506200044c565b601f198416620003f58662000191565b60005b828110156200041f57848901518255600182019150602085019450602081019050620003f8565b868310156200043f57848901516200043b601f8916826200032f565b8355505b6001600288020188555050505b505050505050565b614ed480620004646000396000f3fe6080604052600436106101e35760003560e01c806368a596c711610102578063a69ae7bc11610095578063c87b56dd11610064578063c87b56dd146106f5578063e8bfc93f14610732578063e985e9c51461075b578063ffde808d14610798576101e3565b8063a69ae7bc1461063d578063ac6a91851461067a578063ad3a358c146106a3578063b88d4fde146106cc576101e3565b806395d89b41116100d157806395d89b41146105905780639b1225c4146105bb5780639b83cddc146105d7578063a22cb46514610614576101e3565b806368a596c7146104c257806370a08231146104ff57806375c1631d1461053c5780637c5e59be14610565576101e3565b806342842e0e1161017a5780635e6b3c18116101495780635e6b3c18146104065780636151ff2e1461042f5780636352211e1461045a578063650025a014610497576101e3565b806342842e0e1461035e5780634b58ffaa146103875780634ccab3fe146103b25780635b3b136a146103db576101e3565b80630d172a01116101b65780630d172a01146102b657806323b872dd146102df57806328e5d54f146103085780632a5c792a14610333576101e3565b806301ffc9a7146101e857806306fdde0314610225578063081812fc14610250578063095ea7b31461028d575b600080fd5b3480156101f457600080fd5b5061020f600480360381019061020a919061371e565b6107d8565b60405161021c9190613766565b60405180910390f35b34801561023157600080fd5b5061023a610839565b6040516102479190613811565b60405180910390f35b34801561025c57600080fd5b5061027760048036038101906102729190613869565b6108cb565b60405161028491906138d7565b60405180910390f35b34801561029957600080fd5b506102b460048036038101906102af919061391e565b6108e7565b005b3480156102c257600080fd5b506102dd60048036038101906102d8919061395e565b6108fd565b005b3480156102eb57600080fd5b506103066004803603810190610301919061395e565b610ad6565b005b34801561031457600080fd5b5061031d610bd8565b60405161032a91906139c0565b60405180910390f35b34801561033f57600080fd5b50610348610bde565b6040516103559190613a99565b60405180910390f35b34801561036a57600080fd5b506103856004803603810190610380919061395e565b610c36565b005b34801561039357600080fd5b5061039c610c56565b6040516103a99190613bef565b60405180910390f35b3480156103be57600080fd5b506103d960048036038101906103d49190613d46565b610e83565b005b3480156103e757600080fd5b506103f0610ff5565b6040516103fd9190613a99565b60405180910390f35b34801561041257600080fd5b5061042d60048036038101906104289190613db5565b61108a565b005b34801561043b57600080fd5b506104446111bc565b60405161045191906139c0565b60405180910390f35b34801561046657600080fd5b50610481600480360381019061047c9190613869565b6111c2565b60405161048e91906138d7565b60405180910390f35b3480156104a357600080fd5b506104ac6111d4565b6040516104b99190613e04565b60405180910390f35b3480156104ce57600080fd5b506104e960048036038101906104e4919061391e565b6111fa565b6040516104f691906139c0565b60405180910390f35b34801561050b57600080fd5b5061052660048036038101906105219190613e1f565b61122b565b60405161053391906139c0565b60405180910390f35b34801561054857600080fd5b50610563600480360381019061055e9190613db5565b6112e5565b005b34801561057157600080fd5b5061057a6113ad565b6040516105879190613bef565b60405180910390f35b34801561059c57600080fd5b506105a561164b565b6040516105b29190613811565b60405180910390f35b6105d560048036038101906105d09190613869565b6116dd565b005b3480156105e357600080fd5b506105fe60048036038101906105f99190613869565b611ab7565b60405161060b9190613766565b60405180910390f35b34801561062057600080fd5b5061063b60048036038101906106369190613e78565b611ae4565b005b34801561064957600080fd5b50610664600480360381019061065f9190613869565b611afa565b6040516106719190613f0d565b60405180910390f35b34801561068657600080fd5b506106a1600480360381019061069c9190613869565b611bac565b005b3480156106af57600080fd5b506106ca60048036038101906106c59190613869565b611c46565b005b3480156106d857600080fd5b506106f360048036038101906106ee9190613fc9565b611e4a565b005b34801561070157600080fd5b5061071c60048036038101906107179190613869565b611e67565b6040516107299190613811565b60405180910390f35b34801561073e57600080fd5b506107596004803603810190610754919061404c565b611f7a565b005b34801561076757600080fd5b50610782600480360381019061077d91906140bb565b612139565b60405161078f9190613766565b60405180910390f35b3480156107a457600080fd5b506107bf60048036038101906107ba9190613869565b6121cd565b6040516107cf94939291906140fb565b60405180910390f35b6000634906490660e01b7bffffffffffffffffffffffffffffffffffffffffffffffffffffffff1916827bffffffffffffffffffffffffffffffffffffffffffffffffffffffff1916148061083257506108318261222a565b5b9050919050565b6060600080546108489061416f565b80601f01602080910402602001604051908101604052809291908181526020018280546108749061416f565b80156108c15780601f10610896576101008083540402835291602001916108c1565b820191906000526020600020905b8154815290600101906020018083116108a457829003601f168201915b5050505050905090565b60006108d68261230c565b506108e082612394565b9050919050565b6108f982826108f46123d1565b6123d9565b5050565b8273ffffffffffffffffffffffffffffffffffffffff1661091d826111c2565b73ffffffffffffffffffffffffffffffffffffffff1614610973576040517f08c379a000000000000000000000000000000000000000000000000000000000815260040161096a90614212565b60405180910390fd5b8273ffffffffffffffffffffffffffffffffffffffff163373ffffffffffffffffffffffffffffffffffffffff1614806109b357506109b28333612139565b5b6109f2576040517f08c379a00000000000000000000000000000000000000000000000000000000081526004016109e99061427e565b60405180910390fd5b600c600082815260200190815260200160002060020160149054906101000a900460ff1615610a56576040517f08c379a0000000000000000000000000000000000000000000000000000000008152600401610a4d90614310565b60405180910390fd5b610a618383836123eb565b610a6b8382612558565b600d60008373ffffffffffffffffffffffffffffffffffffffff1673ffffffffffffffffffffffffffffffffffffffff168152602001908152602001600020819080600181540180825580915050600190039060005260206000200160009091909190915055505050565b600073ffffffffffffffffffffffffffffffffffffffff168273ffffffffffffffffffffffffffffffffffffffff1603610b485760006040517f64a0ae92000000000000000000000000000000000000000000000000000000008152600401610b3f91906138d7565b60405180910390fd5b6000610b5c8383610b576123d1565b6127a9565b90508373ffffffffffffffffffffffffffffffffffffffff168173ffffffffffffffffffffffffffffffffffffffff1614610bd2578382826040517f64283d7b000000000000000000000000000000000000000000000000000000008152600401610bc993929190614330565b60405180910390fd5b50505050565b60085481565b6060600b805480602002602001604051908101604052809291908181526020018280548015610c2c57602002820191906000526020600020905b815481526020019060010190808311610c18575b5050505050905090565b610c5183838360405180602001604052806000815250611e4a565b505050565b606060008060005b600a80549050811015610cce57600c6000600a8381548110610c8357610c82614367565b5b9060005260206000200154815260200190815260200160002060020160149054906101000a900460ff1615610cc1578280610cbd906143c5565b9350505b8080600101915050610c5e565b5060008267ffffffffffffffff811115610ceb57610cea613c1b565b5b604051908082528060200260200182016040528015610d2457816020015b610d11613672565b815260200190600190039081610d095790505b50905060005b600a80549050811015610e7957600c6000600a8381548110610d4f57610d4e614367565b5b9060005260206000200154815260200190815260200160002060020160149054906101000a900460ff1615610e6c57600c6000600a8381548110610d9657610d95614367565b5b9060005260206000200154815260200190815260200160002060405180608001604052908160008201548152602001600182015481526020016002820160009054906101000a900473ffffffffffffffffffffffffffffffffffffffff1673ffffffffffffffffffffffffffffffffffffffff1673ffffffffffffffffffffffffffffffffffffffff1681526020016002820160149054906101000a900460ff161515151581525050828481518110610e5257610e51614367565b5b60200260200101819052508280610e68906143c5565b9350505b8080600101915050610d2a565b5080935050505090565b600960009054906101000a900473ffffffffffffffffffffffffffffffffffffffff1673ffffffffffffffffffffffffffffffffffffffff163373ffffffffffffffffffffffffffffffffffffffff1614610f13576040517f08c379a0000000000000000000000000000000000000000000000000000000008152600401610f0a9061447f565b60405180910390fd5b610f1d81846129c3565b610f278383612abc565b600b839080600181540180825580915050600190039060005260206000200160009091909190915055600d60008273ffffffffffffffffffffffffffffffffffffffff1673ffffffffffffffffffffffffffffffffffffffff1681526020019081526020016000208390806001815401808255809150506001900390600052602060002001600090919091909150557f52922827b9438aa2e63a37e11aa3ae44e0536c26374251088fbc3a47589aed7b836000604051610fe89291906144e4565b60405180910390a1505050565b6060600d60003373ffffffffffffffffffffffffffffffffffffffff1673ffffffffffffffffffffffffffffffffffffffff16815260200190815260200160002080548060200260200160405190810160405280929190818152602001828054801561108057602002820191906000526020600020905b81548152602001906001019080831161106c575b5050505050905090565b3373ffffffffffffffffffffffffffffffffffffffff166110aa836111c2565b73ffffffffffffffffffffffffffffffffffffffff1614611100576040517f08c379a00000000000000000000000000000000000000000000000000000000081526004016110f79061457f565b60405180910390fd5b60008111611143576040517f08c379a000000000000000000000000000000000000000000000000000000000815260040161113a906145eb565b60405180910390fd5b6000600c600084815260200190815260200160002090508060020160149054906101000a900460ff16156111ac576040517f08c379a00000000000000000000000000000000000000000000000000000000081526004016111a390614657565b60405180910390fd5b6111b7838333612b18565b505050565b60075481565b60006111cd8261230c565b9050919050565b600960009054906101000a900473ffffffffffffffffffffffffffffffffffffffff1681565b600d602052816000526040600020818154811061121657600080fd5b90600052602060002001600091509150505481565b60008073ffffffffffffffffffffffffffffffffffffffff168273ffffffffffffffffffffffffffffffffffffffff160361129e5760006040517f89c62b6400000000000000000000000000000000000000000000000000000000815260040161129591906138d7565b60405180910390fd5b600360008373ffffffffffffffffffffffffffffffffffffffff1673ffffffffffffffffffffffffffffffffffffffff168152602001908152602001600020549050919050565b3373ffffffffffffffffffffffffffffffffffffffff16611305836111c2565b73ffffffffffffffffffffffffffffffffffffffff161461135b576040517f08c379a00000000000000000000000000000000000000000000000000000000081526004016113529061457f565b60405180910390fd5b6000811161139e576040517f08c379a0000000000000000000000000000000000000000000000000000000008152600401611395906145eb565b60405180910390fd5b6113a9828233612b18565b5050565b60606000806000600d60003373ffffffffffffffffffffffffffffffffffffffff1673ffffffffffffffffffffffffffffffffffffffff16815260200190815260200160002080548060200260200160405190810160405280929190818152602001828054801561143d57602002820191906000526020600020905b815481526020019060010190808311611429575b5050505050905060005b81518110156114b557600082828151811061146557611464614367565b5b60200260200101519050600c600082815260200190815260200160002060020160149054906101000a900460ff16156114a75784806114a3906143c5565b9550505b508080600101915050611447565b5060008367ffffffffffffffff8111156114d2576114d1613c1b565b5b60405190808252806020026020018201604052801561150b57816020015b6114f8613672565b8152602001906001900390816114f05790505b50905060005b825181101561164057600083828151811061152f5761152e614367565b5b60200260200101519050600c600082815260200190815260200160002060020160149054906101000a900460ff161561163257600c600082815260200190815260200160002060405180608001604052908160008201548152602001600182015481526020016002820160009054906101000a900473ffffffffffffffffffffffffffffffffffffffff1673ffffffffffffffffffffffffffffffffffffffff1673ffffffffffffffffffffffffffffffffffffffff1681526020016002820160149054906101000a900460ff16151515158152505083868151811061161857611617614367565b5b6020026020010181905250848061162e906143c5565b9550505b508080600101915050611511565b508094505050505090565b60606001805461165a9061416f565b80601f01602080910402602001604051908101604052809291908181526020018280546116869061416f565b80156116d35780601f106116a8576101008083540402835291602001916116d3565b820191906000526020600020905b8154815290600101906020018083116116b657829003601f168201915b5050505050905090565b600960149054906101000a900460ff161561172d576040517f08c379a0000000000000000000000000000000000000000000000000000000008152600401611724906146c3565b60405180910390fd5b6001600960146101000a81548160ff0219169083151502179055506000600c6000838152602001908152602001600020905060008160010154905060008260020160009054906101000a900473ffffffffffffffffffffffffffffffffffffffff1690506000670de0b6b3a764000090508281346117ab91906146e3565b10156117ec576040517f08c379a00000000000000000000000000000000000000000000000000000000081526004016117e390614789565b60405180910390fd5b8360020160149054906101000a900460ff1661183d576040517f08c379a00000000000000000000000000000000000000000000000000000000081526004016118349061481b565b60405180910390fd5b338460020160006101000a81548173ffffffffffffffffffffffffffffffffffffffff021916908373ffffffffffffffffffffffffffffffffffffffff16021790555060008460020160146101000a81548160ff021916908315150217905550600860008154809291906118b0906143c5565b91905055506118c86118c1866111c2565b33876123eb565b6118d28286612558565b600d60003373ffffffffffffffffffffffffffffffffffffffff1673ffffffffffffffffffffffffffffffffffffffff168152602001908152602001600020859080600181540180825580915050600190039060005260206000200160009091909190915055600060646007548561194a919061483b565b61195491906148ac565b9050611982600960009054906101000a900473ffffffffffffffffffffffffffffffffffffffff1682612c09565b61199783823461199291906148dd565b612c09565b60005b600a80549050811015611a585786600a82815481106119bc576119bb614367565b5b906000526020600020015403611a4b57600a6001600a805490506119e091906148dd565b815481106119f1576119f0614367565b5b9060005260206000200154600a8281548110611a1057611a0f614367565b5b9060005260206000200181905550600a805480611a3057611a2f614911565b5b60019003818190600052602060002001600090559055611a58565b808060010191505061199a565b507f5de13defa3534de0567d51e62e997235f1c1e8ddc82289aeaca94516a358d539863386604051611a8c93929190614940565b60405180910390a150505050506000600960146101000a81548160ff02191690831515021790555050565b6000600c600083815260200190815260200160002060020160149054906101000a900460ff169050919050565b611af6611aef6123d1565b8383612cba565b5050565b611b02613672565b600c600083815260200190815260200160002060405180608001604052908160008201548152602001600182015481526020016002820160009054906101000a900473ffffffffffffffffffffffffffffffffffffffff1673ffffffffffffffffffffffffffffffffffffffff1673ffffffffffffffffffffffffffffffffffffffff1681526020016002820160149054906101000a900460ff1615151515815250509050919050565b600960009054906101000a900473ffffffffffffffffffffffffffffffffffffffff1673ffffffffffffffffffffffffffffffffffffffff163373ffffffffffffffffffffffffffffffffffffffff1614611c3c576040517f08c379a0000000000000000000000000000000000000000000000000000000008152600401611c339061447f565b60405180910390fd5b8060078190555050565b3373ffffffffffffffffffffffffffffffffffffffff16611c66826111c2565b73ffffffffffffffffffffffffffffffffffffffff1614611cbc576040517f08c379a0000000000000000000000000000000000000000000000000000000008152600401611cb39061457f565b60405180910390fd5b600c600082815260200190815260200160002060020160149054906101000a900460ff16611d1f576040517f08c379a0000000000000000000000000000000000000000000000000000000008152600401611d16906149c3565b60405180910390fd5b6000600c600083815260200190815260200160002060020160146101000a81548160ff02191690831515021790555060005b600a80549050811015611e0f5781600a8281548110611d7357611d72614367565b5b906000526020600020015403611e0257600a6001600a80549050611d9791906148dd565b81548110611da857611da7614367565b5b9060005260206000200154600a8281548110611dc757611dc6614367565b5b9060005260206000200181905550600a805480611de757611de6614911565b5b60019003818190600052602060002001600090559055611e0f565b8080600101915050611d51565b507fe0bba5d0bdeddbcc4ef688b9d8170c81883fb4c4a7065d8970c58b47996dd2d781604051611e3f91906139c0565b60405180910390a150565b611e55848484610ad6565b611e6184848484612e29565b50505050565b6060611e728261230c565b506000600660008481526020019081526020016000208054611e939061416f565b80601f0160208091040260200160405190810160405280929190818152602001828054611ebf9061416f565b8015611f0c5780601f10611ee157610100808354040283529160200191611f0c565b820191906000526020600020905b815481529060010190602001808311611eef57829003601f168201915b505050505090506000611f1d612fe0565b90506000815103611f32578192505050611f75565b600082511115611f67578082604051602001611f4f929190614a1f565b60405160208183030381529060405292505050611f75565b611f7084612ff7565b925050505b919050565b600960009054906101000a900473ffffffffffffffffffffffffffffffffffffffff1673ffffffffffffffffffffffffffffffffffffffff163373ffffffffffffffffffffffffffffffffffffffff161461200a576040517f08c379a00000000000000000000000000000000000000000000000000000000081526004016120019061447f565b60405180910390fd5b6000811161204d576040517f08c379a0000000000000000000000000000000000000000000000000000000008152600401612044906145eb565b60405180910390fd5b61205733846129c3565b6120618383612abc565b600b839080600181540180825580915050600190039060005260206000200160009091909190915055600d60003373ffffffffffffffffffffffffffffffffffffffff1673ffffffffffffffffffffffffffffffffffffffff1681526020019081526020016000208390806001815401808255809150506001900390600052602060002001600090919091909150556120fb838233612b18565b7f52922827b9438aa2e63a37e11aa3ae44e0536c26374251088fbc3a47589aed7b838260405161212c929190614a43565b60405180910390a1505050565b6000600560008473ffffffffffffffffffffffffffffffffffffffff1673ffffffffffffffffffffffffffffffffffffffff16815260200190815260200160002060008373ffffffffffffffffffffffffffffffffffffffff1673ffffffffffffffffffffffffffffffffffffffff16815260200190815260200160002060009054906101000a900460ff16905092915050565b600c6020528060005260406000206000915090508060000154908060010154908060020160009054906101000a900473ffffffffffffffffffffffffffffffffffffffff16908060020160149054906101000a900460ff16905084565b60007f80ac58cd000000000000000000000000000000000000000000000000000000007bffffffffffffffffffffffffffffffffffffffffffffffffffffffff1916827bffffffffffffffffffffffffffffffffffffffffffffffffffffffff191614806122f557507f5b5e139f000000000000000000000000000000000000000000000000000000007bffffffffffffffffffffffffffffffffffffffffffffffffffffffff1916827bffffffffffffffffffffffffffffffffffffffffffffffffffffffff1916145b80612305575061230482613060565b5b9050919050565b600080612318836130ca565b9050600073ffffffffffffffffffffffffffffffffffffffff168173ffffffffffffffffffffffffffffffffffffffff160361238b57826040517f7e27328900000000000000000000000000000000000000000000000000000000815260040161238291906139c0565b60405180910390fd5b80915050919050565b60006004600083815260200190815260200160002060009054906101000a900473ffffffffffffffffffffffffffffffffffffffff169050919050565b600033905090565b6123e68383836001613107565b505050565b600073ffffffffffffffffffffffffffffffffffffffff168273ffffffffffffffffffffffffffffffffffffffff160361245d5760006040517f64a0ae9200000000000000000000000000000000000000000000000000000000815260040161245491906138d7565b60405180910390fd5b600061246b838360006127a9565b9050600073ffffffffffffffffffffffffffffffffffffffff168173ffffffffffffffffffffffffffffffffffffffff16036124de57816040517f7e2732890000000000000000000000000000000000000000000000000000000081526004016124d591906139c0565b60405180910390fd5b8373ffffffffffffffffffffffffffffffffffffffff168173ffffffffffffffffffffffffffffffffffffffff1614612552578382826040517f64283d7b00000000000000000000000000000000000000000000000000000000815260040161254993929190614330565b60405180910390fd5b50505050565b60006001600d60008573ffffffffffffffffffffffffffffffffffffffff1673ffffffffffffffffffffffffffffffffffffffff168152602001908152602001600020805490506125a991906148dd565b9050600080600090505b600d60008673ffffffffffffffffffffffffffffffffffffffff1673ffffffffffffffffffffffffffffffffffffffff168152602001908152602001600020805490508110156126745783600d60008773ffffffffffffffffffffffffffffffffffffffff1673ffffffffffffffffffffffffffffffffffffffff168152602001908152602001600020828154811061264f5761264e614367565b5b90600052602060002001540361266757809150612674565b80806001019150506125b3565b5081811461273e576000600d60008673ffffffffffffffffffffffffffffffffffffffff1673ffffffffffffffffffffffffffffffffffffffff16815260200190815260200160002083815481106126cf576126ce614367565b5b9060005260206000200154905080600d60008773ffffffffffffffffffffffffffffffffffffffff1673ffffffffffffffffffffffffffffffffffffffff168152602001908152602001600020838154811061272e5761272d614367565b5b9060005260206000200181905550505b600d60008573ffffffffffffffffffffffffffffffffffffffff1673ffffffffffffffffffffffffffffffffffffffff16815260200190815260200160002080548061278d5761278c614911565b5b6001900381819060005260206000200160009055905550505050565b6000806127b5846130ca565b9050600073ffffffffffffffffffffffffffffffffffffffff168373ffffffffffffffffffffffffffffffffffffffff16146127f7576127f68184866132cc565b5b600073ffffffffffffffffffffffffffffffffffffffff168173ffffffffffffffffffffffffffffffffffffffff161461288857612839600085600080613107565b6001600360008373ffffffffffffffffffffffffffffffffffffffff1673ffffffffffffffffffffffffffffffffffffffff168152602001908152602001600020600082825403925050819055505b600073ffffffffffffffffffffffffffffffffffffffff168573ffffffffffffffffffffffffffffffffffffffff161461290b576001600360008773ffffffffffffffffffffffffffffffffffffffff1673ffffffffffffffffffffffffffffffffffffffff168152602001908152602001600020600082825401925050819055505b846002600086815260200190815260200160002060006101000a81548173ffffffffffffffffffffffffffffffffffffffff021916908373ffffffffffffffffffffffffffffffffffffffff160217905550838573ffffffffffffffffffffffffffffffffffffffff168273ffffffffffffffffffffffffffffffffffffffff167fddf252ad1be2c89b69c2b068fc378daa952ba7f163c4a11628f55a4df523b3ef60405160405180910390a4809150509392505050565b600073ffffffffffffffffffffffffffffffffffffffff168273ffffffffffffffffffffffffffffffffffffffff1603612a355760006040517f64a0ae92000000000000000000000000000000000000000000000000000000008152600401612a2c91906138d7565b60405180910390fd5b6000612a43838360006127a9565b9050600073ffffffffffffffffffffffffffffffffffffffff168173ffffffffffffffffffffffffffffffffffffffff1614612ab75760006040517f73c6ac6e000000000000000000000000000000000000000000000000000000008152600401612aae91906138d7565b60405180910390fd5b505050565b80600660008481526020019081526020016000209081612adc9190614c0e565b507ff8e1a15aba9398e019f0b49df1a4fde98ee17ae345cb5f6b5e2c27f5033e8ce782604051612b0c91906139c0565b60405180910390a15050565b6000600c60008581526020019081526020016000209050838160000181905550828160010181905550818160020160006101000a81548173ffffffffffffffffffffffffffffffffffffffff021916908373ffffffffffffffffffffffffffffffffffffffff16021790555060018160020160146101000a81548160ff021916908315150217905550600a8490806001815401808255809150506001900390600052602060002001600090919091909150557f1ea85aaf6731daa0c29195039c2a36576fb04e2cd16335504fab8967dfb03f158484604051612bfb929190614a43565b60405180910390a150505050565b60008273ffffffffffffffffffffffffffffffffffffffff1682604051612c2f90614d11565b60006040518083038185875af1925050503d8060008114612c6c576040519150601f19603f3d011682016040523d82523d6000602084013e612c71565b606091505b5050905080612cb5576040517f08c379a0000000000000000000000000000000000000000000000000000000008152600401612cac90614d72565b60405180910390fd5b505050565b600073ffffffffffffffffffffffffffffffffffffffff168273ffffffffffffffffffffffffffffffffffffffff1603612d2b57816040517f5b08ba18000000000000000000000000000000000000000000000000000000008152600401612d2291906138d7565b60405180910390fd5b80600560008573ffffffffffffffffffffffffffffffffffffffff1673ffffffffffffffffffffffffffffffffffffffff16815260200190815260200160002060008473ffffffffffffffffffffffffffffffffffffffff1673ffffffffffffffffffffffffffffffffffffffff16815260200190815260200160002060006101000a81548160ff0219169083151502179055508173ffffffffffffffffffffffffffffffffffffffff168373ffffffffffffffffffffffffffffffffffffffff167f17307eab39ab6107e8899845ad3d59bd9653f200f220920489ca2b5937696c3183604051612e1c9190613766565b60405180910390a3505050565b60008373ffffffffffffffffffffffffffffffffffffffff163b1115612fda578273ffffffffffffffffffffffffffffffffffffffff1663150b7a02612e6d6123d1565b8685856040518563ffffffff1660e01b8152600401612e8f9493929190614de7565b6020604051808303816000875af1925050508015612ecb57506040513d601f19601f82011682018060405250810190612ec89190614e48565b60015b612f4f573d8060008114612efb576040519150601f19603f3d011682016040523d82523d6000602084013e612f00565b606091505b506000815103612f4757836040517f64a0ae92000000000000000000000000000000000000000000000000000000008152600401612f3e91906138d7565b60405180910390fd5b805181602001fd5b63150b7a0260e01b7bffffffffffffffffffffffffffffffffffffffffffffffffffffffff1916817bffffffffffffffffffffffffffffffffffffffffffffffffffffffff191614612fd857836040517f64a0ae92000000000000000000000000000000000000000000000000000000008152600401612fcf91906138d7565b60405180910390fd5b505b50505050565b606060405180602001604052806000815250905090565b60606130028261230c565b50600061300d612fe0565b9050600081511161302d5760405180602001604052806000815250613058565b8061303784613390565b604051602001613048929190614a1f565b6040516020818303038152906040525b915050919050565b60007f01ffc9a7000000000000000000000000000000000000000000000000000000007bffffffffffffffffffffffffffffffffffffffffffffffffffffffff1916827bffffffffffffffffffffffffffffffffffffffffffffffffffffffff1916149050919050565b60006002600083815260200190815260200160002060009054906101000a900473ffffffffffffffffffffffffffffffffffffffff169050919050565b80806131405750600073ffffffffffffffffffffffffffffffffffffffff168273ffffffffffffffffffffffffffffffffffffffff1614155b156132745760006131508461230c565b9050600073ffffffffffffffffffffffffffffffffffffffff168373ffffffffffffffffffffffffffffffffffffffff16141580156131bb57508273ffffffffffffffffffffffffffffffffffffffff168173ffffffffffffffffffffffffffffffffffffffff1614155b80156131ce57506131cc8184612139565b155b1561321057826040517fa9fbf51f00000000000000000000000000000000000000000000000000000000815260040161320791906138d7565b60405180910390fd5b811561327257838573ffffffffffffffffffffffffffffffffffffffff168273ffffffffffffffffffffffffffffffffffffffff167f8c5be1e5ebec7d5bd14f71427d1e84f3dd0314c0f7b2291e5b200ac8c7c3b92560405160405180910390a45b505b836004600085815260200190815260200160002060006101000a81548173ffffffffffffffffffffffffffffffffffffffff021916908373ffffffffffffffffffffffffffffffffffffffff16021790555050505050565b6132d783838361345e565b61338b57600073ffffffffffffffffffffffffffffffffffffffff168373ffffffffffffffffffffffffffffffffffffffff160361334c57806040517f7e27328900000000000000000000000000000000000000000000000000000000815260040161334391906139c0565b60405180910390fd5b81816040517f177e802f000000000000000000000000000000000000000000000000000000008152600401613382929190614e75565b60405180910390fd5b505050565b60606000600161339f8461351f565b01905060008167ffffffffffffffff8111156133be576133bd613c1b565b5b6040519080825280601f01601f1916602001820160405280156133f05781602001600182028036833780820191505090505b509050600082602001820190505b600115613453578080600190039150507f3031323334353637383961626364656600000000000000000000000000000000600a86061a8153600a85816134475761344661487d565b5b049450600085036133fe575b819350505050919050565b60008073ffffffffffffffffffffffffffffffffffffffff168373ffffffffffffffffffffffffffffffffffffffff161415801561351657508273ffffffffffffffffffffffffffffffffffffffff168473ffffffffffffffffffffffffffffffffffffffff1614806134d757506134d68484612139565b5b8061351557508273ffffffffffffffffffffffffffffffffffffffff166134fd83612394565b73ffffffffffffffffffffffffffffffffffffffff16145b5b90509392505050565b600080600090507a184f03e93ff9f4daa797ed6e38ed64bf6a1f010000000000000000831061357d577a184f03e93ff9f4daa797ed6e38ed64bf6a1f01000000000000000083816135735761357261487d565b5b0492506040810190505b6d04ee2d6d415b85acef810000000083106135ba576d04ee2d6d415b85acef810000000083816135b0576135af61487d565b5b0492506020810190505b662386f26fc1000083106135e957662386f26fc1000083816135df576135de61487d565b5b0492506010810190505b6305f5e1008310613612576305f5e10083816136085761360761487d565b5b0492506008810190505b612710831061363757612710838161362d5761362c61487d565b5b0492506004810190505b6064831061365a57606483816136505761364f61487d565b5b0492506002810190505b600a8310613669576001810190505b80915050919050565b60405180608001604052806000815260200160008152602001600073ffffffffffffffffffffffffffffffffffffffff1681526020016000151581525090565b6000604051905090565b600080fd5b600080fd5b60007fffffffff0000000000000000000000000000000000000000000000000000000082169050919050565b6136fb816136c6565b811461370657600080fd5b50565b600081359050613718816136f2565b92915050565b600060208284031215613734576137336136bc565b5b600061374284828501613709565b91505092915050565b60008115159050919050565b6137608161374b565b82525050565b600060208201905061377b6000830184613757565b92915050565b600081519050919050565b600082825260208201905092915050565b60005b838110156137bb5780820151818401526020810190506137a0565b60008484015250505050565b6000601f19601f8301169050919050565b60006137e382613781565b6137ed818561378c565b93506137fd81856020860161379d565b613806816137c7565b840191505092915050565b6000602082019050818103600083015261382b81846137d8565b905092915050565b6000819050919050565b61384681613833565b811461385157600080fd5b50565b6000813590506138638161383d565b92915050565b60006020828403121561387f5761387e6136bc565b5b600061388d84828501613854565b91505092915050565b600073ffffffffffffffffffffffffffffffffffffffff82169050919050565b60006138c182613896565b9050919050565b6138d1816138b6565b82525050565b60006020820190506138ec60008301846138c8565b92915050565b6138fb816138b6565b811461390657600080fd5b50565b600081359050613918816138f2565b92915050565b60008060408385031215613935576139346136bc565b5b600061394385828601613909565b925050602061395485828601613854565b9150509250929050565b600080600060608486031215613977576139766136bc565b5b600061398586828701613909565b935050602061399686828701613909565b92505060406139a786828701613854565b9150509250925092565b6139ba81613833565b82525050565b60006020820190506139d560008301846139b1565b92915050565b600081519050919050565b600082825260208201905092915050565b6000819050602082019050919050565b613a1081613833565b82525050565b6000613a228383613a07565b60208301905092915050565b6000602082019050919050565b6000613a46826139db565b613a5081856139e6565b9350613a5b836139f7565b8060005b83811015613a8c578151613a738882613a16565b9750613a7e83613a2e565b925050600181019050613a5f565b5085935050505092915050565b60006020820190508181036000830152613ab38184613a3b565b905092915050565b600081519050919050565b600082825260208201905092915050565b6000819050602082019050919050565b6000613af282613896565b9050919050565b613b0281613ae7565b82525050565b613b118161374b565b82525050565b608082016000820151613b2d6000850182613a07565b506020820151613b406020850182613a07565b506040820151613b536040850182613af9565b506060820151613b666060850182613b08565b50505050565b6000613b788383613b17565b60808301905092915050565b6000602082019050919050565b6000613b9c82613abb565b613ba68185613ac6565b9350613bb183613ad7565b8060005b83811015613be2578151613bc98882613b6c565b9750613bd483613b84565b925050600181019050613bb5565b5085935050505092915050565b60006020820190508181036000830152613c098184613b91565b905092915050565b600080fd5b600080fd5b7f4e487b7100000000000000000000000000000000000000000000000000000000600052604160045260246000fd5b613c53826137c7565b810181811067ffffffffffffffff82111715613c7257613c71613c1b565b5b80604052505050565b6000613c856136b2565b9050613c918282613c4a565b919050565b600067ffffffffffffffff821115613cb157613cb0613c1b565b5b613cba826137c7565b9050602081019050919050565b82818337600083830152505050565b6000613ce9613ce484613c96565b613c7b565b905082815260208101848484011115613d0557613d04613c16565b5b613d10848285613cc7565b509392505050565b600082601f830112613d2d57613d2c613c11565b5b8135613d3d848260208601613cd6565b91505092915050565b600080600060608486031215613d5f57613d5e6136bc565b5b6000613d6d86828701613854565b935050602084013567ffffffffffffffff811115613d8e57613d8d6136c1565b5b613d9a86828701613d18565b9250506040613dab86828701613909565b9150509250925092565b60008060408385031215613dcc57613dcb6136bc565b5b6000613dda85828601613854565b9250506020613deb85828601613854565b9150509250929050565b613dfe81613ae7565b82525050565b6000602082019050613e196000830184613df5565b92915050565b600060208284031215613e3557613e346136bc565b5b6000613e4384828501613909565b91505092915050565b613e558161374b565b8114613e6057600080fd5b50565b600081359050613e7281613e4c565b92915050565b60008060408385031215613e8f57613e8e6136bc565b5b6000613e9d85828601613909565b9250506020613eae85828601613e63565b9150509250929050565b608082016000820151613ece6000850182613a07565b506020820151613ee16020850182613a07565b506040820151613ef46040850182613af9565b506060820151613f076060850182613b08565b50505050565b6000608082019050613f226000830184613eb8565b92915050565b600067ffffffffffffffff821115613f4357613f42613c1b565b5b613f4c826137c7565b9050602081019050919050565b6000613f6c613f6784613f28565b613c7b565b905082815260208101848484011115613f8857613f87613c16565b5b613f93848285613cc7565b509392505050565b600082601f830112613fb057613faf613c11565b5b8135613fc0848260208601613f59565b91505092915050565b60008060008060808587031215613fe357613fe26136bc565b5b6000613ff187828801613909565b945050602061400287828801613909565b935050604061401387828801613854565b925050606085013567ffffffffffffffff811115614034576140336136c1565b5b61404087828801613f9b565b91505092959194509250565b600080600060608486031215614065576140646136bc565b5b600061407386828701613854565b935050602084013567ffffffffffffffff811115614094576140936136c1565b5b6140a086828701613d18565b92505060406140b186828701613854565b9150509250925092565b600080604083850312156140d2576140d16136bc565b5b60006140e085828601613909565b92505060206140f185828601613909565b9150509250929050565b600060808201905061411060008301876139b1565b61411d60208301866139b1565b61412a6040830185613df5565b6141376060830184613757565b95945050505050565b7f4e487b7100000000000000000000000000000000000000000000000000000000600052602260045260246000fd5b6000600282049050600182168061418757607f821691505b60208210810361419a57614199614140565b5b50919050565b7f53656e646572206973206e6f7420746865206f776e6572206f6620746869732060008201527f746f6b656e000000000000000000000000000000000000000000000000000000602082015250565b60006141fc60258361378c565b9150614207826141a0565b604082019050919050565b6000602082019050818103600083015261422b816141ef565b9050919050565b7f43616c6c6572206973206e6f74206f776e6572206e6f7220617070726f766564600082015250565b600061426860208361378c565b915061427382614232565b602082019050919050565b600060208201905081810360008301526142978161425b565b9050919050565b7f546f6b656e2069732063757272656e746c79206c697374656420616e6420636160008201527f6e6e6f74206265207472616e7366657272656400000000000000000000000000602082015250565b60006142fa60338361378c565b91506143058261429e565b604082019050919050565b60006020820190508181036000830152614329816142ed565b9050919050565b600060608201905061434560008301866138c8565b61435260208301856139b1565b61435f60408301846138c8565b949350505050565b7f4e487b7100000000000000000000000000000000000000000000000000000000600052603260045260246000fd5b7f4e487b7100000000000000000000000000000000000000000000000000000000600052601160045260246000fd5b60006143d082613833565b91507fffffffffffffffffffffffffffffffffffffffffffffffffffffffffffffffff820361440257614401614396565b5b600182019050919050565b7f4f6e6c79206f776e65722063616e2063616c6c20746869732066756e6374696f60008201527f6e00000000000000000000000000000000000000000000000000000000000000602082015250565b600061446960218361378c565b91506144748261440d565b604082019050919050565b600060208201905081810360008301526144988161445c565b9050919050565b6000819050919050565b6000819050919050565b60006144ce6144c96144c48461449f565b6144a9565b613833565b9050919050565b6144de816144b3565b82525050565b60006040820190506144f960008301856139b1565b61450660208301846144d5565b9392505050565b7f596f7520617265206e6f7420746865206f776e6572206f66207468697320746f60008201527f6b656e0000000000000000000000000000000000000000000000000000000000602082015250565b600061456960238361378c565b91506145748261450d565b604082019050919050565b600060208201905081810360008301526145988161455c565b9050919050565b7f5072696365206d7573742062652067726561746572207468616e207a65726f00600082015250565b60006145d5601f8361378c565b91506145e08261459f565b602082019050919050565b60006020820190508181036000830152614604816145c8565b9050919050565b7f546865204e465420697320616c7265616479206c697374656400000000000000600082015250565b600061464160198361378c565b915061464c8261460b565b602082019050919050565b6000602082019050818103600083015261467081614634565b9050919050565b7f5265656e7472616e742063616c6c2e0000000000000000000000000000000000600082015250565b60006146ad600f8361378c565b91506146b882614677565b602082019050919050565b600060208201905081810360008301526146dc816146a0565b9050919050565b60006146ee82613833565b91506146f983613833565b925082820190508082111561471157614710614396565b5b92915050565b7f506c65617365207375626d6974207468652061736b696e67207072696365207460008201527f6f20636f6d706c65746520746865207075726368617365000000000000000000602082015250565b600061477360378361378c565b915061477e82614717565b604082019050919050565b600060208201905081810360008301526147a281614766565b9050919050565b7f5468697320746f6b656e206973206e6f74206c697374656420666f722073616c60008201527f6500000000000000000000000000000000000000000000000000000000000000602082015250565b600061480560218361378c565b9150614810826147a9565b604082019050919050565b60006020820190508181036000830152614834816147f8565b9050919050565b600061484682613833565b915061485183613833565b925082820261485f81613833565b9150828204841483151761487657614875614396565b5b5092915050565b7f4e487b7100000000000000000000000000000000000000000000000000000000600052601260045260246000fd5b60006148b782613833565b91506148c283613833565b9250826148d2576148d161487d565b5b828204905092915050565b60006148e882613833565b91506148f383613833565b925082820390508181111561490b5761490a614396565b5b92915050565b7f4e487b7100000000000000000000000000000000000000000000000000000000600052603160045260246000fd5b600060608201905061495560008301866139b1565b61496260208301856138c8565b61496f60408301846139b1565b949350505050565b7f546f6b656e206973206e6f74206c697374656400000000000000000000000000600082015250565b60006149ad60138361378c565b91506149b882614977565b602082019050919050565b600060208201905081810360008301526149dc816149a0565b9050919050565b600081905092915050565b60006149f982613781565b614a0381856149e3565b9350614a1381856020860161379d565b80840191505092915050565b6000614a2b82856149ee565b9150614a3782846149ee565b91508190509392505050565b6000604082019050614a5860008301856139b1565b614a6560208301846139b1565b9392505050565b60008190508160005260206000209050919050565b60006020601f8301049050919050565b600082821b905092915050565b600060088302614ace7fffffffffffffffffffffffffffffffffffffffffffffffffffffffffffffffff82614a91565b614ad88683614a91565b95508019841693508086168417925050509392505050565b6000614b0b614b06614b0184613833565b6144a9565b613833565b9050919050565b6000819050919050565b614b2583614af0565b614b39614b3182614b12565b848454614a9e565b825550505050565b600090565b614b4e614b41565b614b59818484614b1c565b505050565b5b81811015614b7d57614b72600082614b46565b600181019050614b5f565b5050565b601f821115614bc257614b9381614a6c565b614b9c84614a81565b81016020851015614bab578190505b614bbf614bb785614a81565b830182614b5e565b50505b505050565b600082821c905092915050565b6000614be560001984600802614bc7565b1980831691505092915050565b6000614bfe8383614bd4565b9150826002028217905092915050565b614c1782613781565b67ffffffffffffffff811115614c3057614c2f613c1b565b5b614c3a825461416f565b614c45828285614b81565b600060209050601f831160018114614c785760008415614c66578287015190505b614c708582614bf2565b865550614cd8565b601f198416614c8686614a6c565b60005b82811015614cae57848901518255600182019150602085019450602081019050614c89565b86831015614ccb5784890151614cc7601f891682614bd4565b8355505b6001600288020188555050505b505050505050565b600081905092915050565b50565b6000614cfb600083614ce0565b9150614d0682614ceb565b600082019050919050565b6000614d1c82614cee565b9150819050919050565b7f5472616e73666572206661696c65642e00000000000000000000000000000000600082015250565b6000614d5c60108361378c565b9150614d6782614d26565b602082019050919050565b60006020820190508181036000830152614d8b81614d4f565b9050919050565b600081519050919050565b600082825260208201905092915050565b6000614db982614d92565b614dc38185614d9d565b9350614dd381856020860161379d565b614ddc816137c7565b840191505092915050565b6000608082019050614dfc60008301876138c8565b614e0960208301866138c8565b614e1660408301856139b1565b8181036060830152614e288184614dae565b905095945050505050565b600081519050614e42816136f2565b92915050565b600060208284031215614e5e57614e5d6136bc565b5b6000614e6c84828501614e33565b91505092915050565b6000604082019050614e8a60008301856138c8565b614e9760208301846139b1565b939250505056fea2646970667358221220d7586e55abdb23edbd6c68c8dc1e6687f82e80937bcd5a14049ac8c7d92d2d9664736f6c63430008180033",
  "linkReferences": {},
  "deployedLinkReferences": {}
}